:100000000C94C9030C94E6030C9401040C94E603CD
:100010000C94E6030C94E6030C94E6030C94E603BC
:100020000C94E6030C942F1C0C948D110C94E60395
:100030000C94E6030C94E6030C94E6030C94E6039C
:100040000C94E6030C94E6030C94E6030C94E6038C
:100050000C94E6034C00130012000C00150017006E
:100060001C00180008001A0014002B0028003300A0
:100070000F000E0009000A000B000D00070016001B
:10008000040001512A00270026002500210022003B
:100090002300240020001F001E002900340052000D
:1000A00037003600190005001100100006001B0083
:1000B0001D00E1004F0051005000380004512C0099
:1000C0002C000551E200E300E600E0004600560087
:1000D0005E005D000100010001005C000100010004
:1000E00001002B00280055005B005A0001000100B0
:1000F0000100590001000100010001002A00570021
:10010000610060000100010001005F0001000100CA
:10011000010035003400A900540062000100010014
:1001200001000100010001000100E100BD00AA0082
:10013000BE00010004512C002C000551E300E20038
:10014000E000E0004C0033001C00180013000A001F
:100150000D000F0009001A0014002B0034001200DB
:100160000C000800170007000B0011001600150016
:10017000040029002A002700260025002100220073
:100180002300240020001F001E0035002800380036
:1001900037003600190005000E00100006001B0095
:1001A0001D00E1004F0052005100500004512C008E
:1001B0002C000551E300E200E00007514C000F0065
:1001C0001500060013001C0009000A003700360065
:1001D00034002B00380016001100170018000C0026
:1001E00007000B0008001200040029002A00270065
:1001F00026002500210022002300240020001F00EB
:100200001E00350028001D0019001A000E001B00FA
:10021000050010000D0014003300E1004F005200F3
:100220005100500004512C002C000551E300E20065
:10023000E0000751010027022602250221022202C6
:100240002302240220021F021E023502310238005E
:1002500025022E003D003E003F002D023C003B00E9
:100260003A004C0045004400430042003E003F007D
:10027000400041003D003C003B003A0001004B00C3
:100280000100640243004400450032024200410084
:10029000400001004D004E004A00AB00010001008B
:1002A00001000651010001000100010001003002BF
:1002B0002F020100210022002300240020001F0043
:1002C0001E003500310030002F002E023D003E00A0
:1002D0003F002D003C003B003A004C00010027028B
:1002E00026020100210022002300240020001F001C
:1002F0001E0035000100CA5C36023800430044008D
:10030000450025024200410040000100C65CCB5C74
:10031000C75CC35C0651010001000100010001003F
:10032000010001004C00010001000100010001007A
:100330000100010001000100005C01000100035206
:1003400002520152010001000100005201000100AF
:100350000100390045004400430042003E003F00D8
:10036000400041003D003C003B003A00010001001C
:100370000100010001000100010001000100010075
:100380000100010001000100010001000100010065
:100390000100010001000100010001000100CA5C30
:1003A000CB5C01000100010001000100010001001F
:1003B000010001000100C85CC95C010001000100EE
:1003C0000100010001000100010001000100010025
:1003D0000100010001000100010001000100010015
:1003E00001000100C45CC65CC75CC35C0100010085
:1003F000010001000100010001000100C25CBF5CBE
:10040000BE5CC05C010001000100010001000100B0
:100410000100010000047F3F1F643214643214782D
:100420003C1E1E140A050001010101010101010128
:100430000202020202020202020303030303030395
:100440000304040404040404050505050506060662
:100450000606070707070708080808090909090A1F
:100460000A0A0B0B0B0C0C0C0D0D0D0E0E0E0F0FC4
:100470000F10101111111212131314141515161652
:100480001717181819191A1A1B1B1C1D1D1E1E1FC1
:100490002020212222232424252626272829292A10
:1004A0002B2C2D2D2E2F3031323233343536373838
:1004B000393A3B3C3D3E3F40414243444546474834
:1004C000494A4C4D4E4F50515354555658595A5B0A
:1004D0005D5E5F616264656668696B6C6D6F7072AA
:1004E000737577787A7B7D7E8082838587888A8C16
:1004F0008E8F91939596989A9C9EA0A2A3A5A7A94A
:10050000ABADAFB1B3B5B7BABCBEC0C2C4C6C9CB40
:10051000CDCFD1D4D6D8DBDDDFE2E4E7E9EBEEF0F6
:10052000F3F5F8FAFDFFFFAA7F5540222325262880
:10053000292A2C2D2F3032333536383A3B3D3E4078
:1005400042434547494A4C4E5051535557595A5CBE
:100550005E6062646668696B6D6F71737577797BD5
:100560007D7F81838587898A8C8E90929496989AD4
:100570009C9E9FA1A3A5A7A8AAACAEAFB1B3B4B6E9
:10058000B8B9BBBCBEBFC1C2C3C5C6C7C9CACBCC44
:10059000CDCED0D1D2D2D3D4D5D6D7D7D8D9D9DA17
:1005A000DADBDBDBDCDCDCDCDCDDDDDDDDDCDCDC8C
:1005B000DCDCDBDBDBDADAD9D9D8D7D7D6D5D4D3B4
:1005C000D2D2D1D0CECDCCCBCAC9C7C6C5C3C2C189
:1005D000BFBEBCBBB9B8B6B4B3B1AFAEACAAA8A7E6
:1005E000A5A3A19F9E9C9A98969492908E8C8A899E
:1005F000878583817F7D7B79777573716F6D6B697B
:1006000068666462605E5C5A5957555351504E4C4F
:100610004A4947454342403E3D3B3A3836353332FE
:10062000302F2D2C2A292826252322000000000007
:1006300000000000000001010203040506080A0C86
:100640000F1114181C2024292E33393F464C535BBC
:10065000626A7179818A929AA2AAB2B9C1C8CFD5C9
:10066000DCE1E7EBF0F4F7FAFCFDFEFFFEFDFCFA3F
:10067000F7F4F0EBE7E1DCD5CFC8C1B9B2AAA29A92
:10068000928A8179716A625B534C463F39332E29D5
:1006900024201C1814110F0C0A080605040302017B
:1006A000010000000000000000000005010980A119
:1006B00001850319012AB700150126B700950175B8
:1006C000108100C0050C0901A101850419012AA0AF
:1006D00002150126A002950175108100C0050109CF
:1006E00006A101050719E029E71500250195087500
:1006F0000181029501750881030507190029FF157D
:100700000026FF00950675088100050819012905D6
:10071000950575019102950175039103C00A034A7D
:10072000004A0035003000000016034B00500072F4
:100730000065007000750062006C006900630000D5
:10074000000403090409023B00020100A0FA0904A5
:100750000000010301010009210101000122400004
:1007600007058103080001090401000103000000DE
:10077000092101010001223200070583030800015D
:100780001201100100000008504B5000000201024D
:10079000000111241FBECFE5D8E0DEBFCDBF22E0AF
:1007A000A4EEB0E001C01D92AF3AB207E1F710E04D
:1007B000A0E6B0E0E8E8F2E402C005900D92A43EA5
:1007C000B107D9F70E94A11C0C942F210C940000B2
:1007D000A82FB92F80E090E041E050EA609530E02A
:1007E00009C02D9182279795879510F0842795272A
:1007F000305EC8F36F5FA8F30895EADF8D939D9391
:100800000895CF93CFB7CF93C395839BE9F7839B8D
:100810000EC0839B0CC0839B0AC0839B08C0839B34
:1008200006C0C0918902C395C0938902A6C0DF9318
:10083000C0918802DD27C357DD4F839B02C0DF9143
:10084000E6CF2F930F931F9300B32FEF03FB20F9F5
:100850004F933F9310B34FEF012703FB21F93BE088
:1008600031C04E7F012F10B3216028C0102F4D7F63
:100870002260000000B329C04B7F2460012F0000DC
:1008800010B32BC010B3477F28602AC04F7E00B33F
:1008900020612CC04F7D10B320622FC04F7B00B36E
:1008A000206432C0422700B349934FEF0000102765
:1008B00013FB20F910B31C70C9F1297F91F20127B5
:1008C00003FB21F900B3237F89F2315058F110273F
:1008D00013FB22F910B3277E79F2012703FB23F9DA
:1008E0002F7C81F200B3102713FB24F92F7971F2CA
:1008F00000C010B3012703FB25F92F7359F200C084
:1009000000B3102713FB26F9223040F200C010B3C9
:10091000012703FB27F9243028F64F77206810B30E
:100920000000F9CF10E81ABF00271CC03B503195DA
:10093000C31BD04010E81ABF0881033C11F10B34EF
:1009400001F1209186021981110F1213EDCF4A8116
:10095000441F093669F10D3211F0013E29F74F703D
:1009600009F0042F00938C023F914F911F910F913A
:100970002F91DF91CAB7C7FD47CFCF91CFBFCF919E
:10098000189520918C02222379F310918A02112369
:1009900009F044C034300AF443C030938A022093F3
:1009A0008702109188023BE0311B3093880238C0E7
:1009B00000918A02013094F50AE54F7049F43091B4
:1009C0007C0034FD2FC000937C00C3E6D2E02EC033
:1009D000433059F0443091F030916E0234FD22C022
:1009E00000936E02CFE6D2E021C03091A30234FD25
:1009F00019C00093A302C4EAD2E018C030917A0271
:100A000034FD10C000937A02CBE7D2E00FC02795E7
:100A1000A8F45150A9F4220F0000F9CF4AE503C011
:100A200042ED01C0432FC4E1D0E032E011B31C60BD
:100A3000939A11BB02B320E41CE05F93012756E0B8
:100A400002BB279520F4515021F4220FF9CF012742
:100A500056E000003B5A02BBD0F2279528F45150D3
:100A600029F4220F0000F9CF012756E0279502BB99
:100A700020F4515021F4220FF9CF012756E029919B
:100A8000332302BB21F6037F10918B02110FC65155
:100A9000D04002BB11F01093860210E81ABF086024
:100AA00011B3137F402F437F5F9100C000C002BB92
:100AB00011BB42BB59CFFC019381933059F130F403
:100AC0009130C1F09230F1F080E00895913209F454
:100AD00040C09232C9F784819581009709F44AC0D9
:100AE000019791F78BEA96E090935F0280935E0204
:100AF00082E3089580E897E090935F0280935E021E
:100B000082E1089585E497E090935F0280935E020E
:100B10008BE3089582818130A1F0882351F08230E7
:100B200099F68DE197E090935F0280935E028AE0F0
:100B3000089581E497E090935F0280935E0284E0E1
:100B4000089589E297E090935F0280935E0286E1C8
:100B500008958281882331F0813009F0B5CF80E794
:100B600097E002C087E597E090935F0280935E0272
:100B700089E008958DED96E090935F0280935E0288
:100B800080E4089508950895089580915902089584
:100B90009C01FC0132969FEF80E04191461751F095
:100BA0009F3F19F4411101C0982F8F5F8630A9F73C
:100BB0009F3F09F40895290F311D97FD3A95F901DA
:100BC000628308952091C1013091C201281739072D
:100BD00071F09093C2018093C101E091BF01F09147
:100BE000C001309721F00084F185E02D099508952A
:100BF0002091BD013091BE012817390771F0909303
:100C0000BE018093BD01E091BF01F091C00130971A
:100C100021F00680F781E02D09950895E091BF014C
:100C2000F091C001309729F00190F081E02D0995F5
:100C3000089580E00895B0E0A0E0E1E2F6E00C94D1
:100C4000F91F8C0186B597B56CE070E00E94DF1F3C
:100C50006017710758F0C80169E070E00E94DF1F5B
:100C6000CB01CDB7DEB7ECE00C94152086B597B577
:100C7000E6B4F7B4C6B4D7B4C6E0D0E0BE010E9473
:100C8000DF1F30E020E0060F171F211D311D480136
:100C9000590185E0880C991CAA1CBB1C8A95D1F7C8
:100CA000C701BE010E94DF1FF12CE12CA7019601B4
:100CB000260F371F411D511DC501B4010E94FE20A2
:100CC00069017A01E6B5F7B5CA01B9010E942A2087
:100CD0009B01AC01DF010E94EB209B01AC01C7012D
:100CE000B6010E942A202FE0969587957795679503
:100CF0002A95D1F706B517B530E020E0061717079B
:100D00002807390708F0ACCF66B577B5A9CF8D3085
:100D1000C0F4811117C09FB59F7D9FBD9498A6B563
:100D2000B7B5282F30E00E9420212CE030E040E0D1
:100D300050E00E94FE20C9010E941B0699BD88BD9B
:100D400008958CE09FB590629FBDE9CFFA018111B3
:100D500001C0FB01099508958091B401982F9E7FF1
:100D600029F4817082608093B40108958A34E8F395
:100D700081708864F8CFAF92BF92DF92EF92FF92BA
:100D80000F931F93CF93DF93082F162FE901E42FC2
:100D9000F0E0EA5DFB4F611110C0E4915E2F4E2F31
:100DA0004983E8835A83DF91CF911F910F91FF9080
:100DB000EF90DF90BF90AF900895E62EF12C449114
:100DC000D42EE42FF0E026E0829FC00111242FEF03
:100DD00030E0B9010E94DF1F802F90E0880F991F3B
:100DE00055E5569FD001579FB00D11248A1B9B0BD0
:100DF000982F990F890F5901AE18BF08AE9ED001E8
:100E0000AF9EB00DBE9EB00D11245B2F189F8001C8
:100E10001124012F11275901A01AB10AAE9E800199
:100E2000AF9E100DBE9E100D11245901A81AB108D5
:100E3000AE9CC001AF9C900DBE9C900D1124892FDB
:100E40009927281B390B2E9FC0012F9F900D3E9F85
:100E5000900D1124E92F62307105A1F050F4611555
:100E6000710509F49DCF6130710581F0EB2F512F91
:100E700097CF6430710569F080F06630710509F430
:100E80008FCFF4CFE42F4B2F592F8ACFE42F412F50
:100E900087CFEB2F542F492F83CF4B2F5D2DE12F81
:100EA0007FCF80E00895F894E82FE295EF70F0E0AE
:100EB00031A9282F2F7081E090E001C0880F2A957A
:100EC000EAF7982F9095932391AB92A9892B82AB47
:100ED000789408959091680192FF06C0282F287198
:100EE0002830F9F4877F846093FF06C0282F28718B
:100EF0002831F1F4877E84612091690120FF06C0CA
:100F0000382F38713830D9F4877F816021FF06C0CF
:100F1000282F28712831D1F4877E816194FD877E46
:100F20000895282F24712430F9F68B7F8860DCCF58
:100F3000282F2471243101F78B7E8861DDCF382F73
:100F40003171313019F78E7F8860E0CF282F217101
:100F5000213121F78E7E8861E1CF972F7530A8F47B
:100F60006C3098F470E02CE0929F600D711D11249C
:100F7000FB019CE3899FE00DF11D1124EE0FFF1F83
:100F8000EC5AFF4F85919491089580E090E0089588
:100F9000CF93DF93EC0182389105A9F1D8F5813325
:100FA000910509F496C048F58932910509F48AC083
:100FB0008A9709F495C0C11522E5D20708F0B6C09A
:100FC000C11531E5D30708F026C1C83ED10508F0A8
:100FD0009CC0C03ED10560F5C83AD10508F087C075
:100FE000C53AD10508F0EFC0C130D10509F120970D
:100FF000F9F0C430D105E0F440C08533910509F41F
:101000005AC0C997C1F680916801837089F0C0EE1B
:10101000D0E00EC0833E910599F170F4803E9105B9
:1010200001F1823E910539F68091680182FD21C06F
:10103000CE01DF91CF910895863E910561F1873E03
:10104000910571F1843E910509F0B5CF8091690158
:1010500081FFEECF80916801C7EED0E084FD0DC026
:10106000E7CF8091680180FD07C19091690190FFF1
:10107000DFCFC3EED0E084FFDBCFD0E0C0E0D8CF3D
:101080008091680182FDFBC09091690190FDBFCF06
:1010900084FFCECFF2CF8091680183FDDDCFC8CF32
:1010A0008091680183FDEEC09091690191FFF0CFBE
:1010B000C4EED0E0BDCF8091680185FFB9CFC9E211
:1010C000D0E0B6CF8091680185FFB2CFC5E3D0E014
:1010D000AFCF8091680186FFABCFCAE2D0E0A8CF46
:1010E0008091680186FFA4CFC1E3D0E0A1CFCF3BC0
:1010F000D10518F6C85AD0E0CC0FDD1FC058DF4F1D
:101100000990D881C02DD46493CFC11540E5D40790
:1011100008F064C0C11580E4D80708F05CC0CE01B7
:101120009A9581159F4108F483CFA7CFC11536E565
:10113000D30718F5C11545E5D40708F084C0C115DB
:1011400084E5D80708F07AC09C2F969596959E0165
:1011500023703327C115D34508F462C0C1E0D0E045
:1011600002C0CC0FDD1F2A95E2F730E2939FC00149
:101170001124C82BD92BDA685BCFC1158AE5D807B3
:1011800078F4C11599E5D90708F068C0C11528E5BC
:10119000D20708F472CFDC2FCC27C06FD06A48CFBB
:1011A000CE0190568115904208F067CF8D2F8F7138
:1011B0000E946A0790E0982F882788279F719C01DA
:1011C0002C2BE90149C0C55AD0E0C358DF4FC88174
:1011D000D0E0D0642DCFDF70D06A2ACFCE01E4E01A
:1011E00096958795EA95E1F783702C2F269526959D
:1011F000237040E2249F90011124382B8C2F8370A0
:10120000C1E0D0E002C0CC0FDD1F8A95E2F7C22B0F
:10121000D32BDC680DCFDC2FCC27C16FD06A08CF71
:10122000C1E0D0E002C0CC0FDD1F2A95E2F720E23A
:10123000929FC0011124C82BD92BEBCFDC2FCC27D8
:10124000C46FD06AF5CE8C2F0E946A07C82FD0E0F9
:10125000DC2FCC27CC27DF71D062EACE8C2F8F70A9
:101260000E946A0734E0D695C7953A95E1F7CF70AA
:101270009C2FEC01D069DCCEC9E3D0E0D9CEC2EE20
:10128000D0E0D6CEC6EED0E0D3CE8091520181110F
:101290001092520108958095909151019823909356
:1012A000510108958091510190915001892B8093B3
:1012B000E60090915201992391F0892B8093E600EA
:1012C00020E088EE90E0FC013191CF0131112F5FD9
:1012D000F0E08E3E9F07B9F721110E944509E09189
:1012E000BF01F091C001309731F00280F381E02D11
:1012F00086EE90E00995089580914E0190911D0130
:10130000981301C008958F5F8770FACFB0E0A0E016
:10131000ECE8F9E00C94FC1F8C01C0906401D090C3
:101320006501E0906601F090670180915301909112
:101330005401A0915501B0915601C82AD92AEA2A30
:10134000FB2ACFE1D0E0BC2ED701C6010C2E04C091
:10135000B695A795979587950A94D2F780FD09C011
:10136000219788F7B12C8B2DCDB7DEB7E9E00C942F
:101370001820B8018C2F0E94AD070E94C807019762
:1013800079F3F1CFCF93DF93EC010E948609BE0180
:101390000E94AD070E94C807DF91CF910895292FC1
:1013A000953080F58C3070F590E03CE0239F800D07
:1013B000911D1124682F677023E0969587952A95D3
:1013C000E1F725E0289FF001299FF00D1124E1515C
:1013D000FF4F50E040E080E0219130E0062E02C057
:1013E000369527950A94E2F721703327042E01C021
:1013F000220F0A94EAF7822B4F5F5F4F4530510569
:1014000059F7089580E00895292F9530A0F58C3084
:1014100090F590E03CE0239F800D911D1124282F32
:10142000277041E001C0440F2A95EAF723E0969522
:1014300087952A95E1F725E0289FF001299FF00D77
:101440001124E151FF4F30E020E070E05191DF01C5
:101450001197CB01022E02C0969587950A94E2F768
:10146000817081958527842385278C932F5F3F4F3B
:101470002530310559F70895FC01808191810E9442
:10148000C20992959F70963091F058F4925F9F70C8
:10149000923058F4803F19F030F4883E30F481E007
:1014A00008959A5FF4CF843FD1F380E00895883E99
:1014B000B0F3813FD1F7F3CF90E080E00E94F805D0
:1014C00090E080E00E94E205109250010E945209D3
:1014D0000895609364017093650180936601909311
:1014E00067010E945C0A08950F931F9341E050E04A
:1014F00060E070E004C0440F551F661F771F8A9597
:10150000D2F7CB01BA0160957095809590950091C6
:10151000640110916501209166013091670160239B
:101520007123822393230E94690A1F910F910895CA
:1015300090914F018095892380934F01282F277028
:1015400091F4282F082E000C330B9217130659F034
:101550009091690192FF07C08595859585950E94B8
:10156000740A10924F0108950F931F9341E050E0C9
:1015700060E070E004C0440F551F661F771F8A9516
:10158000D2F78091640190916501A0916601B091BC
:1015900067018A019B01082B192B2A2B3B2BC901C0
:1015A000B8010E94690A1F910F9108956093530139
:1015B0007093540180935501909356010E945C0AE8
:1015C0000895882321F00E944B090E945209089532
:1015D000882339F090915101982B909351010E94EA
:1015E00052090895882391F19CEF980F913A80F465
:1015F000E8EEF0E02EEE30E09191891303C0DF01B8
:1016000011971C922E173F07B9F70E9452090895AF
:1016100090E2980F983050F4877091E001C0990FD4
:101620008A95EAF7892F0E944B09EFCF9BE5980F27
:10163000933028F490E080E00E94F8050895885ADD
:10164000873120F490E080E00E94E2050895CF9376
:10165000C82F8823B1F08CEF8C0F813A00F5E8EEAB
:10166000F0E08EEE90E0DF012D91C21761F08A1755
:101670009B07D1F76C2F86EE90E00E94C8050E9470
:101680005209CF9108952191C21303C0DF01119730
:101690001C928E179F07B9F70E945209EBCF80E288
:1016A0008C0F883068F4C77021E030E001C0220F51
:1016B000CA95EAF780915101822B80935101DFCFC7
:1016C000EBE5EC0FE33040F4F0E0E358FF4F8081AE
:1016D00090E00E94F805D5CFC85AC73190F6EC2F9C
:1016E000F0E0EE0FFF1FE058FF4F808191810E94D4
:1016F000E205C7CFCF93DF9380918A02835087FDA5
:1017000067C090918802CCE0D0E0C91BD109C357D3
:10171000DD4F90918702903108F458C09D3209F056
:10172000F4C0883009F052C083EC809363028AE5EC
:1017300080937C0010925D028881807609F497C0C6
:10174000803229F58981813099F48C819D81892BA2
:10175000F1F480E592E090935F0280935E0288E06E
:101760009F81911131C09E81981770F5892F2CC0EF
:10177000823041F48FE492E090935F0280935E02A6
:1017800081E0EECF8A3029F48B8180934F0280E094
:10179000E7CF8930E1F78A819B818115924069F416
:1017A0008C819D81892B49F481E080935C028E813C
:1017B0009F8190935B0280935A02888187FFA3C028
:1017C0008E8190E890935D0280937B0010928A0254
:1017D00080917C0084FF3EC080917B008F3FD1F1DF
:1017E000C82F893008F0C8E0982F9C1B90937B008D
:1017F0009091630228E89227909363028823E9F08E
:1018000080915E0290915F0220915D0226FF99C057
:10181000FC012C2FA4E6B2E034913D933196215087
:10182000D9F79C012F5F3F4F8FEF8C0F820F932FC3
:10183000911D90935F0280935E026C2F84E692E08C
:101840000E94FD03CC5FCC3019F08FEF80937B00BA
:10185000C0937C0084E190B39C7031F48150D9F73F
:1018600010928B0210928602DF91CF9108952A8107
:1018700010926C02998191110AC010926D022CE6AF
:1018800032E082E030935F0220935E0269CF9530B0
:1018900029F420938B022CE632E0F4CF9630C9F481
:1018A0009B81913051F4CE010E945B0590E49093AE
:1018B0005D028F3F09F481CF53CF9230A1F3933073
:1018C00091F3913281F3923271F390E490935D023F
:1018D00047CF983089F0993019F420935802DBCF24
:1018E0009A3071F09B30B9F69BE490936F0290931D
:1018F000A40290937B02CFCF28E532E081E0C2CFF3
:101900002CE632E0FBCF8FEF5CCF80915D0287FF4A
:101910005DCF80915A0290915B02892B71F080918A
:101920005C02813051F488818093590210925B02ED
:1019300010925A0210927B0049CF8EE180937C0076
:1019400045CFDC012C2FE4E6F2E03D9131932150AC
:10195000E1F767CF1F93CF93DF93E82F792F162FEF
:10196000EA01888184FF1CC0298188E8282729830F
:10197000CE010296DC012E2F372F512F5E0FF90179
:1019800021912D939F01452F4E1B1416C4F3612FF7
:101990000E94FD031C5F1883DF91CF911F91089572
:1019A0008AE58883E5CF90914E02981307C0209175
:1019B0004C0230914D0226173707B9F080934E0242
:1019C00070934D0260934C028093490270934B02D6
:1019D00060934A028091A30284FF07C043EA52E069
:1019E00063E089E492E00E94AA0C0895BC0184E0BF
:1019F0000E94D30C0895BC0183E00E94D30C08958B
:101A0000CF93DF93CAE0D0E080916E0284FF1CC0C8
:101A10008091470290914802981799F028E0829FA0
:101A2000C00111244EE652E068E089539E4F0E94A7
:101A3000AA0C8091470290E001968F7099278093BD
:101A40004702DF91CF9108950E947A0B87EB9BE0CC
:101A50000197F1F700C000002197B1F6F2CFCF93C4
:101A6000DF93EC01A0914802B0E0CD0101968F70A8
:101A7000992720914702281779F093E0AA0FBB1FFE
:101A80009A95E1F7A953BE4F98E0FE0101900D929F
:101A90009A95E1F7809348020E947A0B0E94000D0C
:101AA00088E0FE01A0E5B2E001900D928A95E1F791
:101AB000DF91CF91089560E081E090E00E94CE2018
:101AC00088E19CE00FB6F894A89581BD0FBE91BD4A
:101AD000FFCF682F86E090E00E94AB200895CF935F
:101AE000C0916901C2FB992790F9981791F080FB8A
:101AF000C2F9C09369016091680184E090E00E949E
:101B0000AB206C2F82E290E00E94AB2082E00E942A
:101B1000980ACF910895CF9384E090E00E94972097
:101B2000C82F82E290E00E949720982F8C2FCF91AF
:101B300008958091B40180FD0AC0E0E9F1E01182CE
:101B400010821282339681E0E43BF807C1F780915E
:101B50008C01811105C00E941F1F81E080938C01C0
:101B600024E630E044E250E060E971E080EB0E945E
:101B7000BF1F0895EF92FF920F931F93CF93DF93B0
:101B80008C01C0E9D1E0F12CE12CF8019481609145
:101B9000B6018091B501F6E0EF16F104ECF499235B
:101BA000E9F09E014091B7010E94BB062FEFE21AB7
:101BB000F20A23968CE0E816F10439F70E94990D99
:101BC000F801848190E00196817099278483CDB7D4
:101BD000DEB7E6E00C941B20992319F39E0140E048
:101BE000E3CFB0E0A0E0E7EFFDE00C94F91FEC01DB
:101BF0004C81042F10E09801D8010E9420219B0104
:101C0000AC010E94EB204B015C01E0E2F0E0E01B44
:101C1000F10BA5E5B0E0AC019B010E94EB206B014C
:101C20007C019F01DF010E9462209B01AC010E94A8
:101C3000F6209B01AC01280D391D4A1D5B1DC70113
:101C4000B6010E94FE20F22E822F90E039E23F156D
:101C500098F143E0249F9001112435952795122F88
:101C6000109590E9C92E91E0D92E00E085E5E82E87
:101C7000EF188E2D01FD8F2D9601412F6091B60139
:101C80000E94BB060F5F53E0C50ED11C0C3089F7D4
:101C90000E94990D9C8181E0992319F0903219F4EA
:101CA0008FEF8093790080917900890F8C83CDB775
:101CB000DEB7ECE00C94152025E530E0A901481BC7
:101CC000590BCA019A01220F331F280F391F37FF02
:101CD000C4CF2F5F3F4FC1CF0F931F93CF93DF939D
:101CE000C0E9D1E0FE01118210821282339681E0B8
:101CF000E43BF807C1F710E000E080918E01082E68
:101D0000000C990B081719078CF180917800082EA8
:101D1000000C990B801791074CF19E014091B7017F
:101D20006091B6018091B5010E94BB060F5F1F4F05
:101D300023960C30110509F70E94990D80917700C8
:101D400090918E01980F90938E0120917800280F2A
:101D500020937800121614F49B301CF08195809328
:101D60007700DF91CF911F910F910895198218820A
:101D70001A82DCCFB0E0A0E0E0ECFEE00C94FC1FA7
:101D8000FC018281DD24DA9480FD02C0DD24D3943D
:101D900000E911E0D0E0C0E02CE0B22EF8011182A1
:101DA0001082128294E0E92EF12CC12C80918D01D9
:101DB0008C0D8D30C4F16B2D0E943A20892F082E96
:101DC000000C990B8C179D0791F48091B7018E9DA3
:101DD000A0018F9D500D1124559547955595479518
:101DE00098016091B6018091B5010E94BB06CD0CAF
:101DF000F1E0EF1AF108D1F621960D5F1F4FCC30BC
:101E0000D10561F60E94990D80918D0191E0D91262
:101E100010C081110CC08BE080938D01CDB7DEB76F
:101E2000E9E00C94182087FFCACF845FC8CF8150A7
:101E3000F3CF90E00196BE010E944820EDCFEF92D3
:101E4000FF921F93CF93DF93EC0180E9E82E81E0AE
:101E5000F82E10E08C8197014091B7016091B60196
:101E6000810F0E94BB061B5E83E0E80EF11C1C3F45
:101E700089F70E94990D9A818C8190FF08C08F5F2D
:101E80008C83DF91CF911F91FF90EF900895815047
:101E9000F7CF9091B40190FF0CC0E0E9F1E08183AD
:101EA00060834283339691E0E43BF907C1F70E94D7
:101EB000990D0895A3E0B0E0E0E6FFE00C94012066
:101EC0008C0180918F0181110AC09E012F5F3F4FCD
:101ED0004FEF6FEF0E94BB068A8180938F01F8015C
:101EE0006481613069F080918F0140E0662361F088
:101EF00040E0623011F440918F0180E060E004C066
:101F000060918F0140E080E00E94490FF8018481D8
:101F100090E0019663E070E00E944820848323965D
:101F2000E4E00C941D20A3E0B0E0E9E9FFE00C94AC
:101F300003209091B40190FF0AC09E012F5F3F4F94
:101F40000E94BB064B8169818A810E94490F2396BA
:101F5000E2E00C941F20CF93DF93EC01E4EBF1E07F
:101F6000438162818C810E94930F8C818F5F8C836F
:101F7000DF91CF910895CF93DF93EC01EC81F0E0F6
:101F8000E55DFA4F4491E4EBF1E0628181810E94CA
:101F9000930F8C818F5F8C83DF91CF910895CF92C7
:101FA000DF92EF92FF926B017C010E94AC06B701B9
:101FB000A60188E090E00E94BC20FF90EF90DF90A7
:101FC000CF900895A3E0B0E0E8EEFFE00C94F61F98
:101FD000F82E762EE42E622E9091B40190FF29C047
:101FE000E92FE695AE2FB0E0A154BF4F8C918093BE
:101FF0008A019E7F923009F59E012F5F3F4F8F2D02
:102000000E94BB064B8169818A810E94490FF09230
:10201000B5017092B601E092B701662051F060916F
:10202000B4017091B5018091B6019091B7010E9401
:10203000CF0F2396EFE00C941220823019F4E09039
:10204000B701E5CF863019F4F090B501E0CF8930C3
:10205000D9F38931E1F6E9518E2F8170582EE6953A
:10206000F0E0EA5DFA4FE4910E2F10E080E9C82E0F
:1020700081E0D82EB12CA12C9CE0892E912CC50199
:10208000B4010E94DF1F8F2D511013C0860F9601DF
:102090004E2D672D0E94BB06A00EB11E83E0C80E18
:1020A000D11C84EBC81681E0D80649F70E94990D2F
:1020B000AECF861BECCFE4EBF1E0438122E1421B83
:1020C00008F440E021E0628181810E94E20F0895DE
:1020D000E4EBF1E0438122E1420F08F44FEF21E00D
:1020E000628181810E94E20F0895E4EBF1E0628158
:1020F0002FE0621B08F460E021E0438181810E94AF
:10210000E20F0895E4EBF1E062812FE0620F08F442
:102110006FEF21E0438181810E94E20F0895E4EB9B
:10212000F1E0818121E0438162818C500E94E20FC5
:102130000895E4EBF1E0818121E043816281845FD5
:102140000E94E20F08958091B801882319F0815010
:102150008093B8016091B4017091B5018091B6018E
:102160009091B7010E94CF0F08958091B8018330FC
:1021700018F48F5F8093B8016091B4017091B5013C
:102180008091B6019091B7010E94CF0F0895E4EBC2
:10219000F1E083E0808311828FEF82838383148256
:1021A00060817181828193810E94CF0F089568EED2
:1021B0007EEF90E080E00E94C82060E082E090E046
:1021C0000E94AB2060E083E090E00E94AB20109280
:1021D000530110925401109255011092560160E083
:1021E00084E090E00E94AB2064E082E290E00E94F4
:1021F000AB2060E085E090E00E94AB2060E086E0EC
:1022000090E00E94AB206FEF87E090E00E94AB204F
:1022100040E050E0BA0188E090E00E94BC2060E01D
:102220008DE090E00E94AB2040E050E0BA0188E1F0
:1022300090E00E94BC2060E087E190E00E94AB202B
:1022400040E050E0BA018CE190E00E94BC2070E0D8
:1022500060E080E290E00E94C82040E050E0BA01D7
:1022600088E190E00E94BC2040E050E0BA018FE09D
:1022700090E00E94BC2040E050E0BA0183E190E091
:102280000E94BC20089590E080E00E94A520883E36
:102290009E4F51F00E94D7108091B90184708166E1
:1022A0008093B9010E94690D86E090E00E9497201A
:1022B0008093B901883620F0877080668093B901D9
:1022C0009091B901892F817090FF04C0892F869564
:1022D000869586950E948706089510925101E8EE32
:1022E000F0E086E0DF011D928A95E9F70E945C0A22
:1022F00008950E946D112FEB87E299E021508040F4
:102300009040E1F700C0000088E19CE00FB6F8942F
:10231000A89581BD0FBE91BDFFCF78941F921FB6C7
:102320001F9211248F939F93AF93BF938091C3010A
:102330009091C401A091C501B091C6010196A11D63
:10234000B11D8093C3019093C401A093C501B093C4
:10235000C601BF91AF919F918F911F901FBE1F909B
:1023600018959C014FB7F8948091C3019091C401D6
:10237000A091C501B091C6014FBF821B930B089578
:102380002FB7F8948091C3019091C401A091C50129
:10239000B091C6012FBF08950F931F93CF93DF9382
:1023A000C62FD42F022FFC0182818823A9F06093CD
:1023B00062020E94C0119093610280936002C77014
:1023C00081E001C0880FCA95EAF70E94E80ADF9110
:1023D000CF911F910F91089580916202681335C0CB
:1023E00080916002909161020E94B111883C910538
:1023F00060F510E21D0FCD17B9F080E28C0F883028
:1024000040F4C77081E001C0880FCA95EAF70E94C6
:10241000E10A183048F481E09D2F977001C0880FC1
:102420009A95EAF70E94E80A802F0E94270B802FD6
:102430000E94F20A183058F6D77081E001C0880F68
:10244000DA95EAF70E94E10AC2CFC77081E001C0C5
:10245000880FCA95EAF7F6CF9091B40190FF2CC08F
:10246000917081112AC092609093B401662351F05B
:102470006091B4017091B5018091B6019091B7015E
:102480000E94CF0F6091B401669570E04BE050E080
:102490008CE690E00E947D20892BB1F010928B0198
:1024A00081E08093870120E04091B7016091B601FF
:1024B0008091B5010E94E20F0895853210F0986472
:1024C000D3CF880F982BD0CF81E080938B010E94CF
:1024D000C0119093850180938401E2CF8091B40173
:1024E0008695815009F484E261E00E942C120895DF
:1024F0008091B40186958F5F853208F081E061E0BC
:102500000E942C1208959091B40190FF08C09695F6
:10251000981728F0961718F40E947812089561E031
:102520000E942C120895A5E0B0E0E9E9F2E10C94D4
:10253000F51F7C01FC0183819481892B31F080811E
:10254000918189238F3F09F013C52596E0E10C9412
:1025500011200E948609182F682F89819A810E9474
:10256000040A69817A81812F0E94AD078C01F701ED
:102570008281882309F408C6F801EC5BFC45E7304A
:10258000F10508F08FC5EF5CFE4D0C945C20809146
:10259000B901877080668093B901887F91E009F462
:1025A00090E08091B90190FB80F98093B9018CE0B3
:1025B0000E9487068091B9010E94690D80914F01A8
:1025C000877019F2F7018281882309F4BECF8091C8
:1025D000690182FFBACF82E00E94980AB6CF80914B
:1025E000B90187708E7F8093B90180E0E1CF80913F
:1025F000B901982F987F79F088508093B901887F2E
:1026000091E009F490E08091B90190FB80F980930A
:10261000B9010E94690D8091B901869586958695CC
:102620001EC08091B901982F9695969596959C30ED
:1026300040F49F5F990F990F990F8770892B8093B2
:10264000B9018091B9018160E2CF8091B90180FF29
:1026500009C08E7F8093B9010E94690D80E00E94BD
:102660008706ACCF80FDAACF81608093B90181300D
:1026700019F489E08093B9018091B901CACF909192
:10268000B901892F8695869586958F5F8F71977092
:102690008D3048F4880F880F880F892B8093B901FB
:1026A0008091B901ACCF9093B901FACF8091B90173
:1026B00081FF09C08D7F8093B9010E94690D89B7A0
:1026C0008B7F89BFA8CF81FD79CF82608093B901CC
:1026D0000E94690D1092BC011092BB011092BA01C8
:1026E00089B7846089BF6ACF27E245EE65EEF1C401
:1026F00026E241EE60EEEDC427E245EE64EEE9C469
:1027000026E241EE62EEE5C428E241E0EFCF023678
:102710003DE5130709F4FEC4063A8DE5180709F4F0
:10272000F9C406312CE5120709F09EC480915101CD
:102730008A7A91E009F490E09093EE0069E28111C9
:1027400065E386EE90E00E94C8050E94520936CFEC
:1027500080916801806207302CE5120709F497C068
:1027600080916801806108303CE5130708F48FC050
:102770008091680180648BC00D308CE5180709F4E6
:102780009FC0A0F4809168018E7F0B30ECE51E079E
:1027900009F47DC0809168018C600C30FCE51F0756
:1027A00008F475C0809168018D7F71C080916801C7
:1027B0008F7E0F302CE5120709F469C08091680103
:1027C000877F00313CE5130708F461C08091680100
:1027D0008F7D5DC00E3F8CE5180709F479C058F570
:1027E0000531ECE51E0709F481C098F48091680179
:1027F000837F03312CE5120709F449C008F470C047
:102800000E946D1190916801892F97FB87F980587C
:102810003EC00C3F8CE5180709F444C008F054C0D2
:102820008091690181600B3FECE51E0709F09CC4B3
:102830008093690199C40230FDE51F0709F462C065
:1028400090F4809169018C7F01153DE5130781F3B8
:1028500098F180916901982F909591708E7F892BC6
:1028600090FB81F9E5CF02369DE5190709F450C0C8
:10287000063AEDE51E0709F452C00330FDE51F07D7
:1028800009F072C460E03FC080916801826080936B
:1028900068016AC4809168018460F9CF8091680101
:1028A0008860F5CF809169018260C2CF0E946D116E
:1028B000809168018068EBCF809169018360B8CF17
:1028C000809168018B7FE3CF809169018E7FB0CFCB
:1028D000809169018D7FACCF809168018F7BD7CFCC
:1028E0000E946D11809168018F77D1CF809168012E
:1028F00082FB992790F921E0922790FB82F990FBC7
:1029000083F9C5CF61E08EE090E00E94AB202CC43B
:1029100090916801892F8F7E94FF8061B8CF90914C
:102920006801892F8E7F90FF8160B1CF8091EE008A
:1029300081110FC089E2E8EEF0E02EEE30E09191D7
:10294000891303C0DF0111971C922E173F07B9F7B7
:10295000FCCE85E3F0CF81608093B40161E0869581
:102960000E942C122BCE4EE652E168E772E10E94E3
:10297000A60624CE48E752E16EE672E1F8CF49E9B7
:1029800050E16FE870E1F3CF45E750E162E870E1B4
:10299000EECF4BE550E168E670E1E9CF48E650E163
:1029A0006BE570E1E4CF45EB50E163EA70E1DFCF26
:1029B00061E081E0D5CF65E082E00E948312FECD28
:1029C00068E086E0FACF64E18FE0F7CF67E185E168
:1029D000F4CF62E289E1F1CF61E083E2C1CF0E94EE
:1029E0006D11EFEBF7E229E0E150F0402040E1F714
:1029F00000C000000E945B0D8091690182FB882766
:102A000080F991E089270E946F0DF7018281008192
:102A10001181882309F445C0C8010E948609D82E77
:102A2000682FC8010E94040AB8018D2D0E94AD07CD
:102A30000E94C8078C01882EF701D280958092945D
:102A40003FE0932280914F018770C1F0BD2CDD20C3
:102A5000B1F0812F807F803421F080E2800F8830B8
:102A600068F08091690182FF09C082E00E94980AA3
:102A700080914F018770BB24B3948111B12CA12E9A
:102A8000A2942FE0A222FBE0FA1508F476C0EA2D0A
:102A9000F0E0E85CFE4D0C945C2081E0B4CF80E077
:102AA000B2CFC8010E94CF09D82EBECF212F2F70E0
:102AB000C22E107F19F0C29490EFC922DD20B9F028
:102AC000CC2069F080E2800F883010F0811009C0BE
:102AD00080915101C82AC09251010E945209802F51
:102AE0004AC080915001C82AC0925001F6CF802F71
:102AF0000E94F20ACC2009F440C0005E083010F0B9
:102B0000811004C08C2D0E944B0906C0C094809196
:102B10005001C822C09250010E9452092EC0312F8C
:102B20003F70C32E107F103219F0C29480EFC8227C
:102B3000882089F081E0881609F477C0DD2009F447
:102B400081C0992009F477C0F701858180FFC7CF44
:102B50008F70858370C02091690122FD43C0DD2004
:102B6000D9F1CC2039F080915101C82AC09251018D
:102B70000E94520980E00E94270BEA2DE850FF0BCB
:102B8000349710F40E940E06BB20A9F080914F01EB
:102B900080FD11C0F70112828595859585950E946B
:102BA000B40AC7010E94931280914F0185958595C3
:102BB00085950E94740A85E0F701DE011196019067
:102BC0000D928A95E1F709811A81C8010E94CF0907
:102BD000B8010E94AD07B9CC80E00E94F20ACC2077
:102BE00061F290CFDD20A1F0909152018C2D892BC4
:102BF000911003C00E94E80AC0CFE1E09E12FACF14
:102C000022FFBBCF981709F4B8CF80935201B5CFFC
:102C1000911006C00E9445098C2D0E94E10AADCF9B
:102C2000F1E09F1609F4A9CFF5CFDD2031F025E0C2
:102C3000291508F4A2CF8C2DDDCF34E0391508F426
:102C40009CCFEACF992041F3F9E38F128AC12FEF8D
:102C50003DEE82E0215030408040E1F700C00000AE
:102C600080C1812F86958695837061F0813009F04F
:102C700084CFC8019370D11002C090E080E00E9420
:102C8000E2057BCFC8019370D11002C090E080E0D4
:102C90000E94F80572CF812F837009F066C0D110B1
:102CA0006CCF802F829586958770880F880F602F54
:102CB0006F70462E512C712C612C082E04C0440CD0
:102CC000551C661C771C0A94D2F740E050E0BA010C
:102CD00004FF0FC04FE050E060E070E004C0440F1C
:102CE000551F661F771F8A95D2F7409550956095BE
:102CF0007095812F869586958370823019F1D8F46E
:102D000000915301109154012091550130915601C9
:102D1000813069F04429552966297729CB01BA0108
:102D200060237123822393230E94D60A26CF402A50
:102D3000512A622A732ACB01BA016429752986298E
:102D40009729F2CF44295529662977290091530103
:102D5000109154012091550130915601CB01BA01D7
:102D60006027712782279327DFCF8695DD2011F01A
:102D7000812F8170882309F400CF802F829586955A
:102D80008770880F880F602F6F70462E512C712C22
:102D9000612C082E04C0440C551C661C771C0A9438
:102DA000D2F740E050E0BA0104FF0FC04FE050E01E
:102DB00060E070E004C0440F551F661F771F8A95BE
:102DC000D2F74095509560957095812F86958695A0
:102DD0008370823019F1D8F400916401109165017B
:102DE0002091660130916701813069F044295529AD
:102DF00066297729CB01BA016023712382239323AB
:102E00000E94690ABACE402A512A622A732ACB014B
:102E1000BA016429752986299729F2CF44295529B1
:102E2000662977290091640110916501209166015E
:102E300030916701CB01BA01602771278227932760
:102E4000DFCF1F70DD2029F0812F0E94B40A802F70
:102E5000D1CE802F0E94E10A812F0E94740A8DCE6C
:102E6000802F92EF891609F43FC0981570F0E0EFBB
:102E70008E16D1F0F1EF8F1691F0DD2009F46CC0C1
:102E800091102DCE812F8F7133C023EF821699F1CF
:102E900034EF8312F2CF8091690182FD3FC0812F10
:102EA0008F71DD20D1F224C0DD20C9F084E08915C6
:102EB00008F463CE1F7161E070E080E090E004C030
:102EC000660F771F881F991F1A95D2F7009164012A
:102ED000109165012091660130916701ADCF95E0B9
:102EE000991508F44ACEE6CF812F8F71D110B5CF56
:102EF0000E94B40A42CE60E070E0CB01DD2009F40C
:102F00007FCF1F7161E070E080E090E004C0660F49
:102F1000771F881F991F1A95D2F772CFDD2089F08D
:102F20001F71812F0E94B40A8091690182FF07C03E
:102F3000E8E01E9FC0011124836080934F01812F20
:102F4000D7CF81E00E94980AF1E0F91508F015CE7C
:102F500082E00E94980A11CE992039F0893309F451
:102F600076CE802F0E94F20A08CE812F8F7175CF06
:102F700085E0DE01119601900D928A95E1F7F70147
:102F8000228189819A812111E4CA0E94CF09182FD8
:102F9000E8CA053C9CE5190709F4ECCC4FE850E180
:102FA00069E970E1063CECE51E0709F4E0CC2DCDA3
:102FB0000A3CFCE51F0709F4ECCC78F4083C3CE53E
:102FC000130709F4E1CC42E850E165E770E1093C00
:102FD0009CE5190709F4CBCC18CD0B3CECE51E079A
:102FE00009F4DCCC43EA50E165EB70E10C3CFCE514
:102FF0001F0709F4BCCC09CD023D2CE5120709F4EA
:10300000E2CCA0F40F3C8CE5180709F4D4CC08F40A
:10301000CFCC003DECE51E0709F4D2CC6EE089E090
:10302000013DFCE51F0709F4C8CCEFCC053D2CE5BC
:10303000120709F4CECC68F4033D8CE5180709F4B7
:10304000C5CC61E088E1043D9CE5190709F488CC12
:10305000DCCC063DECE51E0709F4BECC0E35FDE5E3
:103060001F0709F4ABCAD1CC0B352DE5120709F4C3
:1030700014CD68F401158CE5180709F4B0CC0F3DA8
:103080001C4509F0C2CC0E94D7100E9479110D3561
:10309000EDE51E0709F4B0CC08F401CD083A1D4552
:1030A000A1F3B3CC043F3CE5130709F421CBA8F40A
:1030B000093D9CE5190709F417CB0A3DECE51E070D
:1030C00009F422CB083DFCE51F0799F426E241EE06
:1030D00061EEC7010E94CC1171CA063F2CE51207B0
:1030E00009F40ECB08F408CB073F8CE5180709F468
:1030F000AEC0109262020430FDE51F0708F007CB56
:103100000B3F2CE5120730F4C80182509C454497D0
:1031100008F007CB0E948B0D9093690180936801A2
:1031200001319CE5190709F4D7CB08F053CB0930DE
:10313000FCE51F0709F4BACB08F01ECB05303CE5CF
:10314000130709F4ABCB08F003CB03309CE5190758
:1031500009F49ACB08F09ECB80916801816002301F
:10316000FCE51F0709F493CB609168011091690198
:1031700084E090E00E94AB20612F82E290E00E9408
:10318000AB200E946D111ACA043F9CE5190709F48F
:10319000AFCA08F050C0093DFCE51F0709F4A4CAF6
:1031A0000A3D2CE5120709F4AFCA083D3CE51307B8
:1031B00009F48CCF0631FCE51F0709F4B7CB8091E9
:1031C000510182720D3C2CE5120709F4ECCB08F09A
:1031D00013CF073C9CE5190709F4D1CB08F0E8CEE2
:1031E000043CFCE51F0709F4BECB08F0D2CE033C3B
:1031F0003CE5130709F009CC8091B40180FFABCB0B
:103200008E7F8093B4016091B4017091B50180917B
:10321000B6019091B7010E94CF0F10928B013FEB46
:1032200084ED91E0315080409040E1F700C0000013
:103230000E94990DC3C9063F8CE5180709F460CABE
:1032400008F45ACA073FECE51E0709F0B3CF27E29E
:1032500045EE66EE3ECF1F93CF93DF9380911C0126
:10326000807F09F049C080911901882309F444C086
:1032700080914E01D0911D0160911701709118014C
:10328000A0911A01B0911B01C62FC72316E0D817D1
:1032900099F190E0109711F0CF3F19F401968770E3
:1032A000F6CF189F9001199F300D1124F901E25EAD
:1032B000FE4F41814713F2CF40814613EFCF428149
:1032C0004111ECCF438154814A1B5B0B483C5105B3
:1032D00028F780911C018F70806180931C01F90197
:1032E000ED5DFE4F80818F708061808387E191E08A
:1032F0000E9493120E947C09DF91CF911F91089543
:10330000A1E1B0E0E6E8F9E10C94FB1F8C0185E057
:10331000F801DE011D9601900D928A95E1F7F80102
:10332000E28087E1A82E81E0B82E60911A017091A9
:103330001B016115710509F426C190911701409197
:103340001801892F84238F3F09F41DC12081318109
:10335000C380D480F0901901F601E61BF70BFF2023
:1033600009F4DCC080911C01582F507FE83CF10526
:1033700008F09FC051116BC0FE2C431314C0921370
:1033800012C0E11010C08F70806180931C01C501D4
:103390000E94931280911C01F80185838F2D619604
:1033A000EAE00C941720C114D10429F0822F832362
:1033B0008F3F09F003C180E0F82FF170DF2E80FF0E
:1033C0003CC080914E0140911D0156E0841315C010
:1033D0002D873E878D859E850E94C209292F2295C3
:1033E0002F702230F0F0243018F59F70F1F0F801C2
:1033F0009581907FD1F4D12C1EC090E0589FF001B0
:10340000599FF00D1124E25EFE4F6181361306C014
:103410006081261303C06281E6120FC00196877097
:10342000D5CF9F7011F0882331F3805E883018F378
:10343000C8010E949312FD2CB1CFEE2009F4AECF4B
:1034400080911C01816080931C01F12CA7CF431354
:1034500006C0921304C0F801EE2009F479C0C80137
:103460000E943C0A882309F1EE20F9F080911C01AA
:10347000803270F0209117013091180138872F8326
:103480001986DB86CA868C87CE0107960E94931226
:1034900086E0F801A7E1B1E001900D928A95E1F78D
:1034A0000E942B19FF24F39479CFC8010E94931234
:1034B000F9CF51110AC087E191E00E94931286E092
:1034C000F50111928A95E9F7C0CF43130FC092130B
:1034D0000DC0E1100BC0F8018583C8010E94931252
:1034E00086E0F50111928A95E9F758CFC8010E944C
:1034F0003C0A8823D1F2EE20C1F280911C01803277
:1035000038F220911701309118013A8329831B82E8
:10351000DD82CC828E83CE010196B8CFE83CF105E6
:10352000F8F6FE2CEE2009F243131FC092131DC0C3
:1035300080911C0180FD10C0982F907F69F0F801E8
:103540008583903F31F0982F907F905F8F70892B0B
:103550008583C8010E94931286E0F801A7E1B1E0DB
:1035600001900D928A95E1F719CFC8010E943C0A9B
:1035700081118ECF80911C01816080931C01C80154
:103580000E9493120BCFEE2009F48FCFC8010E9446
:103590003C0AF82E882309F488CF86E0F801A7E1D9
:1035A000B1E001900D928A95E1F780911701909119
:1035B00018010E94C2090E942B19F0CE81E08E25CD
:1035C000FBCEA7E1B0E0E7EEFAE10C9402204B8BD2
:1035D0005C8B6D8B7E8B8F8B6111109250011A8AE0
:1035E000198A85E0FE017396DE011D9601900D9209
:1035F0008A95E1F786E0FE013D96DE01179601907F
:103600000D928A95E1F7CE0107960E9480198111EB
:1036100012C086E0FE013796DE01119601900D92F0
:103620008A95E1F78A859B85892B29F088859F817A
:1036300089238F3F81F516E080914E0190911D0105
:10364000891317C06796E3E00C941E2096E0929FC2
:10365000D001939FB00D1124A25EBE4FFE013196A2
:1036600001900D929A95E1F780931D010E947C09CB
:10367000E2CF819FC0011124825E9E4F0E9480197B
:10368000882301F380914E0190E00196877099277D
:1036900080934E01D1CF20911D0130E0C9010196E8
:1036A0008770992740914E014817190679F60E94B4
:1036B0006D1110921D0110924E0186E0E7E1F1E0DC
:1036C000DF011D928A95E9F7B6CFAAE0B0E0EBE6FC
:1036D000FBE10C94F91F8E010F5F1F4F8AE0F80188
:1036E00011928A95E9F79EEAE92E90E0F92E680199
:1036F000AA24A394B12CF70181917F018F3F09F493
:1037000046C0F894E82FE295EF70F0E021A98F70A1
:10371000A50102C0440F551F8A95E2F7CA01922FF6
:10372000982B91AB92A98095892382AB789400C0A5
:10373000E3EBF0E021E030E0912C812C41914F3F10
:1037400009F481C0A42FA295AF70B0E0D0968C91FF
:1037500090E04F7002C0959587954A95E2F780FDFD
:1037600072C0C901882A992A220F331F50E0EF3B0B
:10377000F50721F7F701319780818F3F11F00E9403
:10378000530788E78A95F1F7F60191828082F2E08B
:10379000CF0ED11C43EBE41640E0F40609F0ABCFAA
:1037A0004AE050E0B8018AE591E00E948A20FF24B7
:1037B000F394009709F4F12C892B09F447C08AE0AF
:1037C000F801AAE5B1E001900D928A95E1F781E058
:1037D000809359010E94C011909358018093570122
:1037E00080915701909158010E94B111059790F175
:1037F00080915A0190915B0190936C0180936B01D1
:1038000080915C0190915D0190936E0180936D01B8
:1038100080915E0190915F019093700180936F01A0
:103820008091600190916101909372018093710188
:103830008091620190916301909374018093730170
:103840001092590107C090E080E08CCF809159011F
:103850008111C6CF8F2D2A96ECE00C9415201F9273
:103860000F920FB60F9211242F933F934F935F93B4
:103870006F937F938F939F93AF93BF93EF93FF9338
:1038800080917A008230A1F08F5F80937A00FF915F
:10389000EF91BF91AF919F918F917F916F915F91C8
:1038A0004F913F912F910F900FBE0F901F90189541
:1038B00081E080937A008091BB019091BC010196D8
:1038C00060ED72E00E94DF1F9093BC018093BB010A
:1038D00065E070E00E94DF1F67FD6FE78091BA012D
:1038E000823031F4603441F489B78B7F89BF04C0E2
:1038F000813011F46F37C1F3E62FF0E0E55DF94F49
:103900002491A6B5B7B530E00E9420212FEF30E01A
:1039100040E050E00E94FE20C9016CE070E00E948F
:10392000DF1F8091B901869586958695282F269F61
:10393000C001279F900D11240E941B0699BD88BDD0
:10394000A6CFCDB7DEB72A970FB6F894DEBF0FBE6D
:10395000CDBF84B7806884BF84B7806884BF0E946D
:10396000C011909383018093820181E597E0909349
:10397000E5008093E40085B7886085BF8BB78068D9
:103980008BBF8BE480936F028093A40280937B02B1
:103990008AE580936E028093A30280937A028B9AC9
:1039A00080E0815009F061C08B9878948BE083BFF0
:1039B0008BEB8CBF82E089BF0EEA10E0F8018191A9
:1039C0008F018F3F11F00E945307F0E0033B1F0768
:1039D000A9F703EB10E0EFEBEE2EE0E0FE2ED801AE
:1039E0008D918D018F3F11F00E945307E016F10673
:1039F000B1F78AE0EBE6F1E0DF01282F1D922A956E
:103A0000E9F7EAE5F1E0DF011D928A95E9F790E038
:103A100080E00E94A520883E9E4F11F00E94D710A2
:103A200082E090E00E949720809375010E948B0DA8
:103A300090936901809368010E94651BEFE3F9E1AF
:103A400021E0E150F0402040E1F700C000000E947A
:103A5000651B80916B0180FF10C06FEF7FEF90E0DE
:103A600080E00E94C8200E945B0DA895A7EBBBE0F8
:103A70001197F1F700C0000094CF83E090E00E941E
:103A80009720682F70E090E080E00E94D60A8C9A20
:103A9000949882E28FBD89E18EBD8FEF9FEF97BD35
:103AA00086BD0E9443118091B90181FF09C0109227
:103AB000BC011092BB011092BA0189B7846089BF22
:103AC0000E94431180916A01811136C090E080E02C
:103AD0000E94A520883E9E4F21F00E94D7100E9490
:103AE000C71088E090E00E949F206093B40170931B
:103AF000B5018093B6019093B7016E7F71F40E9477
:103B0000C71088E090E00E949F206093B4017093FA
:103B1000B5018093B6019093B7010E94AC06109254
:103B20008B018091B40180FF04C060E086950E9403
:103B30002C1281E080936A0180E690E09093C001AE
:103B40008093BF018FEB94EDA1E081509040A040A5
:103B5000E1F700C0000074E1E72E74E0F72E8091D9
:103B6000890210918101882351F1109289020E94EB
:103B7000C0119093830180938201112309F4C1C085
:103B8000109281010E946D110E9443110E940E0645
:103B900080918101882309F4B4C080E00E948706E7
:103BA0000E94651BEBE6F1E085E791E02191319100
:103BB000232B09F08CC08E179F07C1F7D0CF1111AE
:103BC000ECCF80918201909183010E94B111069700
:103BD00008F497C081E08093810180E00E9487060D
:103BE000DCCF2F5FCC0CDD1C2C3009F0B9C00F5F8F
:103BF0001F4F0530110509F0A4C08FEF8E838F830E
:103C000018860E94C0118160782F9A8789874E811B
:103C10005F8168858A850E94E11AC9C0863059F49F
:103C2000F0E0E15EFB4FE4910E2F10E07BEAC72E3F
:103C30007FE0D72ED5C0893061F4E695F0E0E45EF0
:103C4000FB4FE4910E2F10E06FE1C62E6FE0D62EF1
:103C5000C7C08F3061F4E695F0E0E75EFB4FE4917A
:103C60000E2F10E05AEBC52E5EE0D52EB9C085317F
:103C700059F4F0E0EA5EFB4FE4910E2F10E04CE6C1
:103C8000C42E4EE0D42EACC008E210E091EFC92E55
:103C90009DE0D92E883109F4A3C0833241F4F701A5
:103CA000059114913AE5C32E3FE0D32E99C004EF5D
:103CB00011E02AEBC22E2DE0D22E843209F490C0FE
:103CC00000ED17E083ECC82E85E0D82E89C0F8946B
:103CD00021B3939A822F8C6081BB92B33CE09327EF
:103CE00092BBFFE54AEE80E0F15040408040E1F7B2
:103CF00000C0000082B3832782BB21BB93987894D5
:103D00002ECF0E947A0B80915802882309F494C028
:103D100080916E0284FF90C00E94651B882359F039
:103D20008FB7F8944091C3015091C4016091C501CF
:103D30007091C6018FBFEBE6F1E0A6E7B1E010E0BD
:103D400000E0302F819191914D915D914817590775
:103D500009F44DCF20E0CC24C394D12C4827592717
:103D6000BA016C217D21672B09F43BCF29833A836B
:103D700096012823392391E0232B09F490E09B83BB
:103D80000E94C0118160782F9D838C8349815A8164
:103D90006B818D810E94E11A000F111FF801EA5812
:103DA000FE4F80819181C826D926D182C082809120
:103DB0008B018823D1F180918A01E091B401E695CD
:103DC000E81BE0938601823009F028CFF0E0EE5D39
:103DD000FB4FE4910E2F10E0EBEBCE2EEFE0DE2E4A
:103DE00080918701882361F0109287010E94C011A1
:103DF000909385018093840110928901109288012B
:103E00000E94C011E0918401F09185018E1B9F0BEF
:103E10008F3F9F4750F4E00FF11FF0938501E0932F
:103E2000840184E891E0F60109950E940E069091C4
:103E300080018913809380010E94000D90CE11B8FB
:103E400087E080B985B3836085BB86B7846086BF11
:103E500086B7816086BF86B7806486BF0895B0E06C
:103E6000A0E0E5E3FFE10C94FA1FB82EEB010E94FD
:103E7000C0116C01EE24E394F12CC431D10560F043
:103E800025E0E22EF12CCF3FDC0731F0CE0164E1DA
:103E900070E00E94DF1F7B0184EAA82E94E8992E2F
:103EA00016BEA6BE0E94C0118C0106B607FE0BC04E
:103EB00081B1887F8830F9F081B1887F8031D9F075
:103EC0000FEF1FEF09C00E94C011801B910B8E15D0
:103ED0009F0558F30EEF1FEFCF3FDC0709F3C60134
:103EE0000E94B1118C179D07D8F2C801CDB7DEB77B
:103EF000EBE00C941620B3B896BE0E94C0118C0162
:103F000006B607FE09C081B1887F883111F0803480
:103F1000B9F610E000E0E9CF0E94C011801B910BC0
:103F20008E159F0568F3D6CF0F931F93CF93DF9322
:103F3000EB0183B984E886BF0E94C0118C0106B6EC
:103F400007FE10C021B1287F81E090E0283211F4F3
:103F500090E080E0919581959109DF91CF911F913B
:103F60000F910895CF3FDC0751F30E94C011801BD1
:103F7000910B8C179D0718F38EEF9FEFEECFB0E0FB
:103F8000A0E0E5ECFFE10C94FD1F6B018A017901D3
:103F9000B9010E942F1FE6010C0D1D1DC017D1078E
:103FA00011F097FF07C024E926BFCDB7DEB7E8E0E0
:103FB0000C941920B70189910E94941FEFCFAA1B7E
:103FC000BB1B51E107C0AA1FBB1FA617B70710F004
:103FD000A61BB70B881F991F5A95A9F78095909536
:103FE000BC01CD0108952F923F924F925F926F9244
:103FF0007F928F929F92AF92BF92CF92DF92EF9279
:10400000FF920F931F93CF93DF93CDB7DEB7CA1BF9
:10401000DB0B0FB6F894DEBF0FBECDBF09942A8824
:10402000398848885F846E847D848C849B84AA84CC
:10403000B984C884DF80EE80FD800C811B81AA8159
:10404000B981CE0FD11D0FB6F894DEBF0FBECDBF24
:10405000ED010895DB018F939F930E94EB20BF91A8
:10406000AF91A29F800D911DA39F900DB29F900DC7
:104070001124089587FB082E062687FD819567FD8C
:1040800061950E9471200EF4919507FC8195089529
:1040900097FB072E16F4009407D077FD09D00E94F5
:1040A000DF1F07FC05D03EF4909581959F4F089542
:1040B000709561957F4F0895EE0FFF1F0590F49165
:1040C000E02D09940E942021332312F48A1B9B0BBC
:1040D0000C946C200E942021B7FF0895821B930B43
:1040E0000895991B79E004C0991F961708F0961B54
:1040F000881F7A95C9F780950895FC01415050407A
:1041000030F001900616D1F73197CF010895882736
:1041100099270895FB01DC0104C08D91019080195D
:1041200021F441505040C8F7881B990B0895E1993C
:10413000FECF9FBB8EBBE09A99278DB30895A6E171
:10414000B0E044E050E00C94DD20A8E1B0E042E0B3
:1041500050E00C94DD20262FE199FECF9FBB8EBB53
:10416000E09A01970DB2021631F02DBB0FB6F8940C
:10417000E29AE19A0FBE08950396272F0E94AC2081
:104180000E94AB20252F0E94AC20242F0C94AC2041
:104190000196272F0E94AC200C94AB20262FE1998A
:1041A000FECF9FBB8EBB2DBB0FB6F894E29AE19A6F
:1041B0000FBE01960895DC01CB01FC01E199FECF11
:1041C00006C0FFBBEEBBE09A31960DB20D92415096
:1041D0005040B8F708950E942021A59F900DB49FEC
:1041E000900DA49F800D911D11240895B7FF0C948C
:1041F000EB200E94EB20821B930B0895A1E21A2E64
:10420000AA1BBB1BFD010DC0AA1FBB1FEE1FFF1F7A
:10421000A217B307E407F50720F0A21BB30BE40BCA
:10422000F50B661F771F881F991F1A9469F7609511
:104230007095809590959B01AC01BD01CF010895CB
:10424000A29FB001B39FC001A39F700D811D1124D7
:10425000911DB29F700D811D1124911D0895F89438
:10426000FFCFC712EF12F712111325133F13561386
:10427000561556158F158F153116BD15BD15BD1563
:084280004B162117301730170F
:10428800C5052F0DC405FB0CF60CC20501191A1B38
:104298001C1D1E1F20212201020101FF5A81828359
:1042A800E200E900EA00B500B600B700CD008301DE
:1042B800CC008A01920194012102230224022502E2
:1042C800260227022A02B300B4006F007000606162
:1042D800626364909192939495969737363534003B
:1042E80001020202020606060909090909090F0F57
:1042F8000F0F0F0F1515151819191919191919195B
:044308001919232438
:00000001FF
