:100000000C94C9030C94E6030C9401040C94E603CD
:100010000C94E6030C94E6030C94E6030C94E603BC
:100020000C94E6030C94D41B0C946E110C94E60310
:100030000C94E6030C94E6030C94E6030C94E6039C
:100040000C94E6030C94E6030C94E6030C94E6038C
:100050000C94E6034C00130012000C00150017006E
:100060001C00180008001A0014002B003400330094
:100070000F000E0009000A000B000D00070016001B
:10008000040029002A002700260025002100220064
:100090002300240020001F001E0035002800380027
:1000A00037003600190005001100100006001B0083
:1000B0001D00E1004F0052005100500004512C007F
:1000C0002C000551E300E200E00007514C00330032
:1000D000130018001A0005000D00090015000700A4
:1000E00014002B0034000C001200080017000A0056
:1000F0001C0011000B001600040029002A00270034
:1001000026002500210022002300240020001F00DB
:100110001E003500280038003700360006001900A0
:100120000E000F0010001B001D00E1004F005200E8
:100130005100500004512C002C000551E300E20056
:10014000E00007514C0033001C00180013000A00A7
:100150000D000F0009001A0014002B0034001200DB
:100160000C000800170007000B0011001600150016
:10017000040029002A002700260025002100220073
:100180002300240020001F001E0035002800380036
:1001900037003600190005000E00100006001B0095
:1001A0001D00E1004F0052005100500004512C008E
:1001B0002C000551E300E200E00007514C000F0065
:1001C0001500060013001C0009000A003700360065
:1001D00034002B00380016001100170018000C0026
:1001E00007000B0008001200040029002A00270065
:1001F00026002500210022002300240020001F00EB
:100200001E00350028001D0019001A000E001B00FA
:10021000050010000D0014003300E1004F005200F3
:100220005100500004512C002C000551E300E20065
:10023000E0000751010027022602250221022202C6
:100240002302240220021F021E0235023102300264
:100250002F022E023D003E003F002D023C003B00DD
:100260003A004C0001002702260225022102220248
:100270002302240220021F021E02350201004D004B
:100280004A0064024300440045003202420041003B
:1002900040000100AE00A900AA00AB00010001006F
:1002A0000100010001000100010001000100270020
:1002B00026002500210022002300240020001F002A
:1002C0001E003500310030002F002E003D003E00A2
:1002D0003F002D003C003B003A004C00010027008D
:1002E00026002500210022002300240020001F00FA
:1002F0001E00350001004E004B0064004300440026
:10030000450032004200410040000100AE00A9005B
:10031000AA00AB0001000100010001000100010082
:10032000010001004C00010001000100010001007A
:100330000100010001000100005C01000100B15D4D
:10034000B05DAF5D010001000100AE5D0100010084
:100350000100390045004400430042003E003F00D8
:10036000400041003D003C003B003A00010001001C
:100370000100010001000100010001000100010075
:100380000100010001000100010001000100010065
:100390000100010001000100010001000100CA5C30
:1003A000CB5C01000100010001000100010001001F
:1003B000010001000100C85CC95C010001000100EE
:1003C0000100010001000100010001000100010025
:1003D0000100010001000100010001000100010015
:1003E00001000100C45CC65CC75CC35C0100010085
:1003F000010001000100010001000100C25CBF5CBE
:10040000BE5CC05C010001000100010001000100B0
:100410000100010000047F3F1F643214643214782D
:100420003C1E1E140A050001010101010101010128
:100430000202020202020202020303030303030395
:100440000304040404040404050505050506060662
:100450000606070707070708080808090909090A1F
:100460000A0A0B0B0B0C0C0C0D0D0D0E0E0E0F0FC4
:100470000F10101111111212131314141515161652
:100480001717181819191A1A1B1B1C1D1D1E1E1FC1
:100490002020212222232424252626272829292A10
:1004A0002B2C2D2D2E2F3031323233343536373838
:1004B000393A3B3C3D3E3F40414243444546474834
:1004C000494A4C4D4E4F50515354555658595A5B0A
:1004D0005D5E5F616264656668696B6C6D6F7072AA
:1004E000737577787A7B7D7E8082838587888A8C16
:1004F0008E8F91939596989A9C9EA0A2A3A5A7A94A
:10050000ABADAFB1B3B5B7BABCBEC0C2C4C6C9CB40
:10051000CDCFD1D4D6D8DBDDDFE2E4E7E9EBEEF0F6
:10052000F3F5F8FAFDFFFFAA7F5540222325262880
:10053000292A2C2D2F3032333536383A3B3D3E4078
:1005400042434547494A4C4E5051535557595A5CBE
:100550005E6062646668696B6D6F71737577797BD5
:100560007D7F81838587898A8C8E90929496989AD4
:100570009C9E9FA1A3A5A7A8AAACAEAFB1B3B4B6E9
:10058000B8B9BBBCBEBFC1C2C3C5C6C7C9CACBCC44
:10059000CDCED0D1D2D2D3D4D5D6D7D7D8D9D9DA17
:1005A000DADBDBDBDCDCDCDCDCDDDDDDDDDCDCDC8C
:1005B000DCDCDBDBDBDADAD9D9D8D7D7D6D5D4D3B4
:1005C000D2D2D1D0CECDCCCBCAC9C7C6C5C3C2C189
:1005D000BFBEBCBBB9B8B6B4B3B1AFAEACAAA8A7E6
:1005E000A5A3A19F9E9C9A98969492908E8C8A899E
:1005F000878583817F7D7B79777573716F6D6B697B
:1006000068666462605E5C5A5957555351504E4C4F
:100610004A4947454342403E3D3B3A3836353332FE
:10062000302F2D2C2A292826252322000000000007
:1006300000000000000001010203040506080A0C86
:100640000F1114181C2024292E33393F464C535BBC
:10065000626A7179818A929AA2AAB2B9C1C8CFD5C9
:10066000DCE1E7EBF0F4F7FAFCFDFEFFFEFDFCFA3F
:10067000F7F4F0EBE7E1DCD5CFC8C1B9B2AAA29A92
:10068000928A8179716A625B534C463F39332E29D5
:1006900024201C1814110F0C0A080605040302017B
:1006A000010000000000000000000005010980A119
:1006B00001850319012AB700150126B700950175B8
:1006C000108100C0050C0901A101850419012AA0AF
:1006D00002150126A002950175108100C0050109CF
:1006E00006A101050719E029E71500250195087500
:1006F0000181029501750881030507190029FF157D
:100700000026FF00950675088100050819012905D6
:10071000950575019102950175039103C00A034A7D
:10072000004A0035003000000016034B00500072F4
:100730000065007000750062006C006900630000D5
:10074000000403090409023B00020100A0FA0904A5
:100750000000010301010009210101000122400004
:1007600007058103080001090401000103000000DE
:10077000092101010001223200070583030800015D
:100780001201100100000008504B5000000201024D
:10079000000111241FBECFE5D8E0DEBFCDBF22E0AF
:1007A000A4EEB0E001C01D92A33AB207E1F710E059
:1007B000A0E6B0E0ECECF1E402C005900D92A43E9E
:1007C000B107D9F70E94461C0C94D1200C9400006C
:1007D000A82FB92F80E090E041E050EA609530E02A
:1007E00009C02D9182279795879510F0842795272A
:1007F000305EC8F36F5FA8F30895EADF8D939D9391
:100800000895CF93CFB7CF93C395839BE9F7839B8D
:100810000EC0839B0CC0839B0AC0839B08C0839B34
:1008200006C0C0917D02C395C0937D02A6C0DF9330
:10083000C0917C02DD27CF57DD4F839B02C0DF9143
:10084000E6CF2F930F931F9300B32FEF03FB20F9F5
:100850004F933F9310B34FEF012703FB21F93BE088
:1008600031C04E7F012F10B3216028C0102F4D7F63
:100870002260000000B329C04B7F2460012F0000DC
:1008800010B32BC010B3477F28602AC04F7E00B33F
:1008900020612CC04F7D10B320622FC04F7B00B36E
:1008A000206432C0422700B349934FEF0000102765
:1008B00013FB20F910B31C70C9F1297F91F20127B5
:1008C00003FB21F900B3237F89F2315058F110273F
:1008D00013FB22F910B3277E79F2012703FB23F9DA
:1008E0002F7C81F200B3102713FB24F92F7971F2CA
:1008F00000C010B3012703FB25F92F7359F200C084
:1009000000B3102713FB26F9223040F200C010B3C9
:10091000012703FB27F9243028F64F77206810B30E
:100920000000F9CF10E81ABF00271CC03B503195DA
:10093000C31BD04010E81ABF0881033C11F10B34EF
:1009400001F120917A021981110F1213EDCF4A8122
:10095000441F093669F10D3211F0013E29F74F703D
:1009600009F0042F009380023F914F911F910F9146
:100970002F91DF91CAB7C7FD47CFCF91CFBFCF919E
:10098000189520918002222379F310917E02112381
:1009900009F044C034300AF443C030937E022093FF
:1009A0007B0210917C023BE0311B30937C0238C00B
:1009B00000917E02013094F50AE54F7049F43091C0
:1009C0007C0034FD2FC000937C00C7E5D2E02EC030
:1009D000433059F0443091F03091620234FD22C02E
:1009E00000936202C3E6D2E021C03091970234FD49
:1009F00019C000939702C8E9D2E018C030916E0286
:100A000034FD10C000936E02CFE6D2E00FC02795F0
:100A1000A8F45150A9F4220F0000F9CF4AE503C011
:100A200042ED01C0432FC4E1D0E032E011B31C60BD
:100A3000939A11BB02B320E41CE05F93012756E0B8
:100A400002BB279520F4515021F4220FF9CF012742
:100A500056E000003B5A02BBD0F2279528F45150D3
:100A600029F4220F0000F9CF012756E0279502BB99
:100A700020F4515021F4220FF9CF012756E029919B
:100A8000332302BB21F6037F10917F02110FC65161
:100A9000D04002BB11F010937A0210E81ABF086030
:100AA00011B3137F402F437F5F9100C000C002BB92
:100AB00011BB42BB59CFFC019381933059F130F403
:100AC0009130C1F09230F1F080E00895913209F454
:100AD00040C09232C9F784819581009709F44AC0D9
:100AE000019791F78BEA96E090935302809352021C
:100AF00082E3089580E897E0909353028093520236
:100B000082E1089585E497E0909353028093520226
:100B10008BE3089582818130A1F0882351F08230E7
:100B200099F68DE197E090935302809352028AE008
:100B3000089581E497E0909353028093520284E0F9
:100B4000089589E297E0909353028093520286E1E0
:100B500008958281882331F0813009F0B5CF80E794
:100B600097E002C087E597E090935302809352028A
:100B700089E008958DED96E09093530280935202A0
:100B800080E4089508950895089580914D02089590
:100B90009C01FC0132969FEF80E04191461751F095
:100BA0009F3F19F4411101C0982F8F5F8630A9F73C
:100BB0009F3F09F40895290F311D97FD3A95F901DA
:100BC000628308952091B5013091B6012817390745
:100BD00071F09093B6018093B501E091B301F0916B
:100BE000B401309721F00084F185E02D0995089536
:100BF0002091B1013091B2012817390771F090931B
:100C0000B2018093B101E091B301F091B40130974A
:100C100021F00680F781E02D09950895E091B30158
:100C2000F091B401309729F00190F081E02D099501
:100C3000089580E00895B0E0A0E0E1E2F6E00C94D1
:100C40009B1F8C0186B597B56CE070E00E94811FF8
:100C50006017710758F0C80169E070E00E94811FB9
:100C6000CB01CDB7DEB7ECE00C94B71F86B597B5D6
:100C7000E6B4F7B4C6B4D7B4C6E0D0E0BE010E9473
:100C8000811F30E020E0060F171F211D311D480194
:100C9000590185E0880C991CAA1CBB1C8A95D1F7C8
:100CA000C701BE010E94811FF12CE12CA701960112
:100CB000260F371F411D511DC501B4010E94A02000
:100CC00069017A01E6B5F7B5CA01B9010E94CC1FE6
:100CD0009B01AC01DF010E948D209B01AC01C7018B
:100CE000B6010E94CC1F2FE0969587957795679562
:100CF0002A95D1F706B517B530E020E0061717079B
:100D00002807390708F0ACCF66B577B5A9CF8D3085
:100D1000C0F4811117C09FB59F7D9FBD9498A6B563
:100D2000B7B5282F30E00E94C2202CE030E040E030
:100D300050E00E94A020C9010E941B0699BD88BDF9
:100D400008958CE09FB590629FBDE9CFFA018111B3
:100D500001C0FB01099508958091A801982F9E7FFD
:100D600029F4817082608093A80108958A34E8F3A1
:100D700081708864F8CFAF92BF92DF92EF92FF92BA
:100D80000F931F93CF93DF93082F162FE901E42FC2
:100D9000F0E0EA5DFB4F611110C0E4915E2F4E2F31
:100DA0004983E8835A83DF91CF911F910F91FF9080
:100DB000EF90DF90BF90AF900895E62EF12C449114
:100DC000D42EE42FF0E026E0829FC00111242FEF03
:100DD00030E0B9010E94811F802F90E0880F991F99
:100DE00055E5569FD001579FB00D11248A1B9B0BD0
:100DF000982F990F890F5901AE18BF08AE9ED001E8
:100E0000AF9EB00DBE9EB00D11245B2F189F8001C8
:100E10001124012F11275901A01AB10AAE9E800199
:100E2000AF9E100DBE9E100D11245901A81AB108D5
:100E3000AE9CC001AF9C900DBE9C900D1124892FDB
:100E40009927281B390B2E9FC0012F9F900D3E9F85
:100E5000900D1124E92F62307105A1F050F4611555
:100E6000710509F49DCF6130710581F0EB2F512F91
:100E700097CF6430710569F080F06630710509F430
:100E80008FCFF4CFE42F4B2F592F8ACFE42F412F50
:100E900087CFEB2F542F492F83CF4B2F5D2DE12F81
:100EA0007FCF80E00895F894E82FE295EF70F0E0AE
:100EB00031A9282F2F7081E090E001C0880F2A957A
:100EC000EAF7982F9095932391AB92A9892B82AB47
:100ED0007894089590915C0192FF06C0282F2871A4
:100EE0002830F9F4877F846093FF06C0282F28718B
:100EF0002831F1F4877E846120915D0120FF06C0D6
:100F0000382F38713830D9F4877F816021FF06C0CF
:100F1000282F28712831D1F4877E816194FD877E46
:100F20000895282F24712430F9F68B7F8860DCCF58
:100F3000282F2471243101F78B7E8861DDCF382F73
:100F40003171313019F78E7F8860E0CF282F217101
:100F5000213121F78E7E8861E1CF972F7530A8F47B
:100F60006C3098F470E02CE0929F600D711D11249C
:100F7000FB019CE3899FE00DF11D1124EE0FFF1F83
:100F8000EC5AFF4F85919491089580E090E0089588
:100F9000CF93DF93EC0182389105A9F1D8F5813325
:100FA000910509F496C048F58932910509F48AC083
:100FB0008A9709F495C0C11522E5D20708F0B6C09A
:100FC000C11531E5D30708F026C1C83ED10508F0A8
:100FD0009CC0C03ED10560F5C83AD10508F087C075
:100FE000C53AD10508F0EFC0C130D10509F120970D
:100FF000F9F0C430D105E0F440C08533910509F41F
:101000005AC0C997C1F680915C01837089F0C0EE27
:10101000D0E00EC0833E910599F170F4803E9105B9
:1010200001F1823E910539F680915C0182FD21C07B
:10103000CE01DF91CF910895863E910561F1873E03
:10104000910571F1843E910509F0B5CF80915D0164
:1010500081FFEECF80915C01C7EED0E084FD0DC032
:10106000E7CF80915C0180FD07C190915D0190FF09
:10107000DFCFC3EED0E084FFDBCFD0E0C0E0D8CF3D
:1010800080915C0182FDFBC090915D0190FDBFCF1E
:1010900084FFCECFF2CF80915C0183FDDDCFC8CF3E
:1010A00080915C0183FDEEC090915D0191FFF0CFD6
:1010B000C4EED0E0BDCF80915C0185FFB9CFC9E21D
:1010C000D0E0B6CF80915C0185FFB2CFC5E3D0E020
:1010D000AFCF80915C0186FFABCFCAE2D0E0A8CF52
:1010E00080915C0186FFA4CFC1E3D0E0A1CFCF3BCC
:1010F000D10518F6C85AD0E0CC0FDD1FC058DF4F1D
:101100000990D881C02DD46493CFC11540E5D40790
:1011100008F064C0C11580E4D80708F05CC0CE01B7
:101120009A9581159F4108F483CFA7CFC11536E565
:10113000D30718F5C11545E5D40708F084C0C115DB
:1011400084E5D80708F07AC09C2F969596959E0165
:1011500023703327C115D34508F462C0C1E0D0E045
:1011600002C0CC0FDD1F2A95E2F730E2939FC00149
:101170001124C82BD92BDA685BCFC1158AE5D807B3
:1011800078F4C11599E5D90708F068C0C11528E5BC
:10119000D20708F472CFDC2FCC27C06FD06A48CFBB
:1011A000CE0190568115904208F067CF8D2F8F7138
:1011B0000E946A0790E0982F882788279F719C01DA
:1011C0002C2BE90149C0C55AD0E0C358DF4FC88174
:1011D000D0E0D0642DCFDF70D06A2ACFCE01E4E01A
:1011E00096958795EA95E1F783702C2F269526959D
:1011F000237040E2249F90011124382B8C2F8370A0
:10120000C1E0D0E002C0CC0FDD1F8A95E2F7C22B0F
:10121000D32BDC680DCFDC2FCC27C16FD06A08CF71
:10122000C1E0D0E002C0CC0FDD1F2A95E2F720E23A
:10123000929FC0011124C82BD92BEBCFDC2FCC27D8
:10124000C46FD06AF5CE8C2F0E946A07C82FD0E0F9
:10125000DC2FCC27CC27DF71D062EACE8C2F8F70A9
:101260000E946A0734E0D695C7953A95E1F7CF70AA
:101270009C2FEC01D069DCCEC9E3D0E0D9CEC2EE20
:10128000D0E0D6CEC6EED0E0D3CE80914A01811117
:1012900010924A0108958095909149019823909366
:1012A000490108958091490190914801892B8093CB
:1012B000E60090914A01992391F0892B8093E600F2
:1012C00020E088EE90E0FC013191CF0131112F5FD9
:1012D000F0E08E3E9F07B9F721110E944509E09189
:1012E000B301F091B401309731F00280F381E02D29
:1012F00086EE90E009950895809146019091150140
:10130000981301C008958F5F8770FACFB0E0A0E016
:10131000ECE8F9E00C949E1F7C0100915A011091B9
:101320005B0180914B0190914C01082B192BCFE070
:10133000D0E0CC24C394D12CBC2EC6010C2E02C00C
:10134000880F991F0A94E2F780239123892B49F48F
:10135000219790F7B12C8B2DCDB7DEB7E9E00C9437
:10136000BA1FB7018C2F0E94AD070E94C8070197D2
:1013700079F3F1CFCF93DF93EC010E948609BE0190
:101380000E94AD070E94C807DF91CF910895953064
:1013900078F58C3068F5E82FF0E08CE0989FE00D50
:1013A000F11D11249E2F977083E0F695E7958A959D
:1013B000E1F7EE0FFF1FEE0FFF1FE151FF4F50E06F
:1013C00040E080E0219130E0092E02C0369527955B
:1013D0000A94E2F721703327042E01C0220F0A94E9
:1013E000EAF7822B4F5F5F4F4430510559F708955C
:1013F00080E00895953098F58C3088F5E82FF0E07E
:101400008CE0989FE00DF11D11248E2F877041E034
:1014100001C0440F8A95EAF783E0F695E7958A952F
:10142000E1F7EE0FFF1FEE0FFF1FE151FF4F30E01E
:1014300020E070E05191DF011197CB01022E02C034
:10144000969587950A94E2F7817081958527842384
:1014500085278C932F5F3F4F2430310559F708952E
:10146000FC01808191810E94BA0992959F7096300B
:1014700091F058F4925F9F70923058F4803F19F0C9
:1014800030F4883E30F481E008959A5FF4CF843FD1
:10149000D1F380E00895883EB0F3813FD1F7F3CFD8
:1014A00090E080E00E94F80590E080E00E94E20574
:1014B000109248010E94520908959C01207333271D
:1014C0002033310541F4806490935B0180935A018D
:1014D0000E94500A08958F7BF7CF21E030E002C0D0
:1014E000220F331F8A95E2F72095309580915A019B
:1014F00090915B01822393230E945D0A089590914D
:1015000047018095892380934701282F277091F404
:10151000282F082E000C330B9217130659F09091C8
:101520005D0192FF07C08595859585950E946D0A9E
:1015300010924701089521E030E002C0220F331FCE
:101540008A95E2F780915A0190915B01822B932B4F
:101550000E945D0A089590934C0180934B010E9474
:10156000500A0895882321F00E944B090E945209D5
:101570000895882339F090914901982B909349015F
:101580000E9452090895882391F19CEF980F913A97
:1015900080F4E8EEF0E02EEE30E09191891303C084
:1015A000DF0111971C922E173F07B9F70E945209CD
:1015B000089590E2980F983050F4877091E001C040
:1015C000990F8A95EAF7892F0E944B09EFCF9BE587
:1015D000980F933028F490E080E00E94F805089579
:1015E000885A873120F490E080E00E94E205089557
:1015F000CF93C82F8823B1F08CEF8C0F813A00F580
:10160000E8EEF0E08EEE90E0DF012D91C21761F080
:101610008A179B07D1F76C2F86EE90E00E94C805D1
:101620000E945209CF9108952191C21303C0DF0196
:1016300011971C928E179F07B9F70E945209EBCFA2
:1016400080E28C0F883068F4C77021E030E001C080
:10165000220FCA95EAF780914901822B80934901B4
:10166000DFCFEBE5EC0FE33040F4F0E0E358FF4F61
:10167000808190E00E94F805D5CFC85AC73190F616
:10168000EC2FF0E0EE0FFF1FE058FF4F80819181BB
:101690000E94E205C7CFCF93DF9380917E028350F3
:1016A00087FD67C090917C02CCE0D0E0C91BD109D6
:1016B000CF57DD4F90917B02903108F458C09D3296
:1016C00009F0F4C0883009F052C083EC80935702CF
:1016D0008AE580937C00109251028881807609F41B
:1016E00097C0803229F58981813099F48C819D8160
:1016F000892BF1F484E492E0909353028093520298
:1017000088E09F81911131C09E81981770F5892FD3
:101710002CC0823041F483E492E090935302809392
:10172000520281E0EECF8A3029F48B81809343020C
:1017300080E0E7CF8930E1F78A819B818115924073
:1017400069F48C819D81892B49F481E0809350025A
:101750008E819F8190934F0280934E02888187FFF4
:10176000A3C08E8190E89093510280937B001092E9
:101770007E0280917C0084FF3EC080917B008F3F81
:10178000D1F1C82F893008F0C8E0982F9C1B9093A6
:101790007B009091570228E8922790935702882364
:1017A000E9F080915202909153022091510226FF5C
:1017B00099C0FC012C2FA8E5B2E034913D933196FD
:1017C0002150D9F79C012F5F3F4F8FEF8C0F820F75
:1017D000932F911D90935302809352026C2F88E5B2
:1017E00092E00E94FD03CC5FCC3019F08FEF809324
:1017F0007B00C0937C0084E190B39C7031F48150F5
:10180000D9F710927F0210927A02DF91CF9108955A
:101810002A8110926002998191110AC0109261028E
:1018200020E632E082E0309353022093520269CFE7
:10183000953029F420937F0220E632E0F4CF9630F1
:10184000C9F49B81913051F4CE010E945B0590E474
:10185000909351028F3F09F481CF53CF9230A1F37F
:10186000933091F3913281F3923271F390E490933B
:10187000510247CF983089F0993019F420934C02E7
:10188000DBCF9A3071F09B30B9F69BE49093630202
:101890009093980290936F02CFCF2CE432E081E0D6
:1018A000C2CF20E632E0FBCF8FEF5CCF80915102B8
:1018B00087FF5DCF80914E0290914F02892B71F08E
:1018C00080915002813051F4888180934D021092B2
:1018D0004F0210924E0210927B0049CF8EE180930E
:1018E0007C0045CFDC012C2FE8E5F2E03D913193FF
:1018F0002150E1F767CF1F93CF93DF93E82F792F24
:10190000162FEA01888184FF1CC0298188E82827D6
:101910002983CE010296DC012E2F372F512F5E0F27
:10192000F90121912D939F01452F4E1B1416C4F3ED
:10193000612F0E94FD031C5F1883DF91CF911F91DF
:1019400008958AE58883E5CF90914202981307C0F5
:10195000209140023091410226173707B9F0809359
:101960004202709341026093400280933D02709363
:101970003F0260933E028091970284FF07C047E9CF
:1019800052E063E08DE392E00E947B0C0895BC017D
:1019900084E00E94A40C0895BC0183E00E94A40C82
:1019A0000895CF93DF93CAE0D0E08091620284FF74
:1019B0001CC080913B0290913C02981799F028E05E
:1019C000829FC001112442E652E068E085549E4F98
:1019D0000E947B0C80913B0290E001968F709927CA
:1019E00080933B02DF91CF9108950E944B0B87EBD0
:1019F0009BE00197F1F700C000002197B1F6F2CF0C
:101A0000CF93DF93EC01A0913C02B0E0CD010196B1
:101A10008F70992720913B02281779F093E0AA0F45
:101A2000BB1F9A95E1F7A554BE4F98E0FE010190C7
:101A30000D929A95E1F780933C020E944B0B0E9415
:101A4000D10C88E0FE01A4E4B2E001900D928A95E9
:101A5000E1F7DF91CF91089560E081E090E00E948E
:101A6000702088E19CE00FB6F894A89581BD0FBE68
:101A700091BDFFCF682F86E090E00E944D20089531
:101A8000CF93C0915D01C2FB992790F9981791F00F
:101A900080FBC2F9C0935D0160915C0184E090E03D
:101AA0000E944D206C2F82E290E00E944D2082E047
:101AB0000E947F0ACF910895CF93DF93C1E0D0E0D9
:101AC00002C0CC0FDD1F8A95E2F76C2F83E090E017
:101AD0000E944D20CE010E94AB0ADF91CF91089564
:101AE000CF9384E090E00E943920C82F82E290E0FA
:101AF0000E943920982F8C2FCF9108958091A801B2
:101B000080FD0AC0E4E8F1E011821082128233966F
:101B100081E0E83AF807C1F780918001811105C0A2
:101B20000E94C11E81E08093800124E630E044E2FF
:101B300050E064E871E080EB0E94611F0895EF922D
:101B4000FF920F931F93CF93DF938C01C4E8D1E0F2
:101B5000F12CE12CF80194816091AA018091A901F6
:101B6000F6E0EF16F104ECF49923E9F09E014091C0
:101B7000AB010E94BB062FEFE21AF20A23968CE01B
:101B8000E816F10439F70E947E0DF801848190E097
:101B90000196817099278483CDB7DEB7E6E00C9477
:101BA000BD1F992319F39E0140E0E3CFB0E0A0E010
:101BB000ECEDFDE00C949B1FEC014C81042F10E038
:101BC0009801D8010E94C2209B01AC010E948D2087
:101BD0004B015C01E0E2F0E0E01BF10BA5E5B0E0B9
:101BE000AC019B010E948D206B017C019F01DF01F4
:101BF0000E9404209B01AC010E9498209B01AC0133
:101C0000280D391D4A1D5B1DC701B6010E94A02089
:101C1000F22E822F90E039E23F1598F143E0249FA5
:101C20009001112435952795122F109594E8C92E0F
:101C300091E0D92E00E085E5E82EEF188E2D01FD0C
:101C40008F2D9601412F6091AA010E94BB060F5F64
:101C500053E0C50ED11C0C3089F70E947E0D9C818B
:101C600081E0992319F0903219F48FEF8093790075
:101C700080917900890F8C83CDB7DEB7ECE00C94AE
:101C8000B71F25E530E0A901481B590BCA019A018D
:101C9000220F331F280F391F37FFC4CF2F5F3F4F4D
:101CA000C1CF0F931F93CF93DF93C4E8D1E0FE0120
:101CB000118210821282339681E0E83AF807C1F768
:101CC00010E000E080918201082E000C990B0817AB
:101CD00019078CF180917800082E000C990B801761
:101CE00091074CF19E014091AB016091AA01809156
:101CF000A9010E94BB060F5F1F4F23960C301105F0
:101D000009F70E947E0D8091770090918201980FD3
:101D10009093820120917800280F2093780012166A
:101D200014F49B301CF0819580937700DF91CF9164
:101D30001F910F910895198218821A82DCCFB0E0AA
:101D4000A0E0E5EAFEE00C949E1FFC018281DD2408
:101D5000DA9480FD02C0DD24D39404E811E0D0E0E1
:101D6000C0E02CE0B22EF80111821082128294E0C1
:101D7000E92EF12CC12C809181018C0D8D30C4F1A4
:101D80006B2D0E94DC1F892F082E000C990B8C17DD
:101D90009D0791F48091AB018E9DA0018F9D500D08
:101DA0001124559547955595479598016091AA013D
:101DB0008091A9010E94BB06CD0CF1E0EF1AF10859
:101DC000D1F621960D5F1F4FCC30D10561F60E94F0
:101DD0007E0D8091810191E0D91210C081110CC05B
:101DE0008BE080938101CDB7DEB7E9E00C94BA1F98
:101DF00087FFCACF845FC8CF8150F3CF90E00196B0
:101E0000BE010E94EA1FEDCFEF92FF921F93CF9386
:101E1000DF93EC0184E8E82E81E0F82E10E08C815D
:101E200097014091AB016091AA01810F0E94BB060E
:101E30001B5E83E0E80EF11C1C3F89F70E947E0DBB
:101E40009A818C8190FF08C08F5F8C83DF91CF9146
:101E50001F91FF90EF9008958150F7CF9091A801C6
:101E600090FF0CC0E4E8F1E0818360834283339605
:101E700091E0E83AF907C1F70E947E0D0895A3E0CA
:101E8000B0E0E5E4FFE00C94A31F8C018091830196
:101E900081110AC09E012F5F3F4F4FEF6FEF0E94ED
:101EA000BB068A8180938301F8016481613069F007
:101EB0008091830140E0662361F040E0623011F4DC
:101EC0004091830180E060E004C06091830140E0C4
:101ED00080E00E942E0FF801848190E0019663E07B
:101EE00070E00E94EA1F84832396E4E00C94BF1FF5
:101EF000A3E0B0E0EEE7FFE00C94A51F9091A801ED
:101F000090FF0AC09E012F5F3F4F0E94BB064B818E
:101F100069818A810E942E0F2396E2E00C94C11FF2
:101F2000CF93DF93EC01E8EAF1E0438162818C8199
:101F30000E94780F8C818F5F8C83DF91CF91089501
:101F4000CF93DF93EC01EC81F0E0E55DFA4F449133
:101F5000E8EAF1E0628181810E94780F8C818F5FD5
:101F60008C83DF91CF910895CF92DF92EF92FF9211
:101F70006B017C010E94AC06B701A60188E090E0ED
:101F80000E945E20FF90EF90DF90CF900895A3E035
:101F9000B0E0EDECFFE00C94981FF82E762EE42EC6
:101FA000622E9091A80190FF29C0E92FE695AE2FEF
:101FB000B0E0A154BF4F8C9180937E019E7F923000
:101FC00009F59E012F5F3F4F8F2D0E94BB064B816D
:101FD00069818A810E942E0FF092A9017092AA0154
:101FE000E092AB01662051F06091A8017091A901C7
:101FF0008091AA019091AB010E94B40F2396EFE06B
:102000000C94B41F823019F4E090AB01E5CF863018
:1020100019F4F090A901E0CF8930D9F38931E1F6C4
:10202000E9518E2F8170582EE695F0E0EA5DFA4F67
:10203000E4910E2F10E084E8C82E81E0D82EB12C58
:10204000A12C9CE0892E912CC501B4010E94811F16
:102050008F2D511013C0860F96014E2D672D0E94B3
:10206000BB06A00EB11E83E0C80ED11C88EAC816BC
:1020700081E0D80649F70E947E0DAECF861BECCFDB
:10208000E8EAF1E0438122E1421B08F440E021E06C
:10209000628181810E94C70F0895E8EAF1E04381DF
:1020A00022E1420F08F44FEF21E0628181810E941A
:1020B000C70F0895E8EAF1E062812FE0621B08F49F
:1020C00060E021E0438181810E94C70F0895E8EA22
:1020D000F1E062812FE0620F08F46FEF21E04381AD
:1020E00081810E94C70F0895E8EAF1E0818121E033
:1020F000438162818C500E94C70F0895E8EAF1E0A5
:10210000818121E043816281845F0E94C70F08952D
:102110008091AC01882319F081508093AC016091CB
:10212000A8017091A9018091AA019091AB010E9430
:10213000B40F08958091AC01833018F48F5F8093C1
:10214000AC016091A8017091A9018091AA019091C0
:10215000AB010E94B40F0895E8EAF1E083E08083C8
:1021600011828FEF828383831482608171818281E7
:1021700093810E94B40F089568EE7EEF90E080E0B6
:102180000E946A2060E082E090E00E944D2060E0C2
:1021900083E090E00E944D2010924C0110924B0180
:1021A00060E084E090E00E944D2064E082E290E0F4
:1021B0000E944D2060E085E090E00E944D2060E0AC
:1021C00086E090E00E944D206FEF87E090E00E9453
:1021D0004D2040E050E0BA0188E090E00E945E208F
:1021E00060E08DE090E00E944D2040E050E0BA01B8
:1021F00088E190E00E945E2060E087E190E00E942C
:102200004D2040E050E0BA018CE190E00E945E2059
:1022100070E060E080E290E00E946A2040E050E0E0
:10222000BA0188E190E00E945E2040E050E0BA01EF
:102230008FE090E00E945E2040E050E0BA0183E130
:1022400090E00E945E20089590E080E00E94472088
:10225000883E9E4F51F00E94BC108091AD01847069
:1022600081668093AD010E943A0D86E090E00E9465
:1022700039208093AD01883620F087708066809386
:10228000AD019091AD01892F817090FF04C0892F1D
:102290008695869586950E94870608951092490135
:1022A000E8EEF0E086E0DF011D928A95E9F70E94F2
:1022B000500A08950E944E112FEB87E299E02150B9
:1022C00080409040E1F700C0000088E19CE00FB63C
:1022D000F894A89581BD0FBE91BDFFCF78941F9251
:1022E0001FB61F9211248F939F93AF93BF9380913A
:1022F000B7019091B801A091B901B091BA010196CE
:10230000A11DB11D8093B7019093B801A093B901AD
:10231000B093BA01BF91AF919F918F911F901FBE53
:102320001F9018959C014FB7F8948091B701909138
:10233000B801A091B901B091BA014FBF821B930BB4
:1023400008952FB7F8948091B7019091B801A091AA
:10235000B901B091BA012FBF08950F931F93CF9386
:10236000DF93C62FD42F022FFC0182818823A9F08E
:10237000609356020E94A1119093550280935402DB
:10238000C77081E001C0880FCA95EAF70E94B90AB8
:10239000DF91CF911F910F9108958091560268139C
:1023A00035C080915402909155020E949211883C50
:1023B000910560F510E21D0FCD17B9F080E28C0F8A
:1023C000883040F4C77081E001C0880FCA95EAF7F1
:1023D0000E94B20A183048F481E09D2F977001C026
:1023E000880F9A95EAF70E94B90A802F0E94F80A8E
:1023F000802F0E94C30A183058F6D77081E001C0C0
:10240000880FDA95EAF70E94B20AC2CFC77081E05E
:1024100001C0880FCA95EAF7F6CF9091A80190FF06
:102420002CC0917081112AC092609093A8016623FC
:1024300051F06091A8017091A9018091AA01909139
:10244000AB010E94B40F6091A801669570E04BE06B
:1024500050E08CE690E00E941F20892BB1F0109292
:102460007F0181E080937B0120E04091AB0160918E
:10247000AA018091A9010E94C70F0895853210F02A
:102480009864D3CF880F982BD0CF81E080937F01C1
:102490000E94A1119093790180937801E2CF8091FD
:1024A000A8018695815009F484E261E00E940D1232
:1024B00008958091A80186958F5F853208F081E0AC
:1024C00061E00E940D1208959091A80190FF08C04C
:1024D0009695981728F0961718F40E9459120895A7
:1024E00061E00E940D120895A5E0B0E0EAE7F2E194
:1024F0000C949B1F7C01FC0183819481892B31F01A
:102500008081918189238F3F09F0E1C42596ECE019
:102510000C94B71F0E948609182F682F89819A8111
:102520000E94FA0969817A81812F0E94AD078C018E
:10253000F70182810F3AFDE51F0709F447C018F53E
:102540000E3A3DE5130759F1811148C0043F2CE5CF
:10255000120709F4EFC008F08EC5093D8CE5180795
:1025600009F4E4C00A3D9CE5190709F4EFC0083DF1
:10257000ECE51E0709F08BC526E241EE61EEC701CE
:102580000E94AD1111C0003B9DE5190719F1013BF7
:10259000EDE51E07C9F6882339F083E003C08823E0
:1025A00019F080E00E945C0D80914701877009F46A
:1025B000ADCFF7018281882309F4A8CF80915D0116
:1025C00082FFA4CF82E00E947F0AA0CF882361F31C
:1025D00081E0E8CF882341F382E0E4CFF801EC5BAF
:1025E000FC45E730F10508F06AC5ED52FF4D0C944B
:1025F000FE1F8091AD01877080668093AD01887F5A
:1026000091E009F490E08091AD0190FB80F9809316
:10261000AD018CE00E9487068091AD010E943A0DC9
:10262000C3CF8091AD0187708E7F8093AD0180E034
:10263000F1CF8091AD01982F987F79F088508093E9
:10264000AD01887F91E009F490E08091AD0190FBAD
:1026500080F98093AD010E943A0D8091AD0186957D
:10266000869586951EC08091AD01982F969596957A
:1026700096959C3040F49F5F990F990F990F877042
:10268000892B8093AD018091AD018160E2CF809173
:10269000AD0180FF09C08E7F8093AD010E943A0D8D
:1026A00080E00E94870680CF80FD7ECF816080938E
:1026B000AD01813019F489E08093AD018091AD01C5
:1026C000CACF9091AD01892F8695869586958F5FAB
:1026D0008F7197708D3048F4880F880F880F892B81
:1026E0008093AD018091AD01ACCF9093AD01FACF55
:1026F0008091AD0181FF09C08D7F8093AD010E9463
:102700003A0D89B78B7F89BFA8CF81FD4DCF8260FD
:102710008093AD010E943A0D1092B0011092AF016A
:102720001092AE0189B7846089BF3ECF27E245EEA3
:1027300065EE25CF26E241EE60EE21CF27E245EEA1
:1027400064EE1DCF26E241EE62EE19CF28E241E0B1
:10275000EFCF02363DE5130709F4D8C4063A8DE5FC
:10276000180709F4D3C406312CE5120709F0C0C3D9
:10277000809149018A7A91E009F490E09093EE000B
:1027800069E2811165E386EE90E00E94C8050E942F
:1027900052090ACF80915C01806207302CE5120754
:1027A00009F497C080915C01806108303CE5130713
:1027B00008F48FC080915C0180648BC00D308CE583
:1027C000180709F49FC0A0F480915C018E7F0B3044
:1027D000ECE51E0709F47DC080915C018C600C3033
:1027E000FCE51F0708F475C080915C018D7F71C006
:1027F00080915C018F7E0F302CE5120709F469C0CF
:1028000080915C01877F00313CE5130708F461C0CB
:1028100080915C018F7D5DC00E3F8CE5180709F447
:1028200079C058F50531ECE51E0709F481C098F42C
:1028300080915C01837F03312CE5120709F449C0C4
:1028400008F470C00E944E1190915C01892F97FB93
:1028500087F980583EC00C3F8CE5180709F444C046
:1028600008F054C080915D0181600B3FECE51E07CC
:1028700009F076C480935D0173C40230FDE51F0743
:1028800009F462C090F480915D018C7F01153DE5F3
:10289000130781F398F180915D01982F90959170C5
:1028A0008E7F892B90FB81F9E5CF02369DE51907D4
:1028B00009F450C0063AEDE51E0709F452C0033092
:1028C000FDE51F0709F04CC460E03FC080915C014A
:1028D000826080935C0144C480915C018460F9CF84
:1028E00080915C018860F5CF80915D018260C2CFEC
:1028F0000E944E1180915C018068EBCF80915D0158
:102900008360B8CF80915C018B7FE3CF80915D01C4
:102910008E7FB0CF80915D018D7FACCF80915C01C7
:102920008F7BD7CF0E944E1180915C018F77D1CFE2
:1029300080915C0182FB992790F921E0922790FB1E
:1029400082F990FB83F9C5CF61E08EE090E00E94B0
:102950004D2006C490915C01892F8F7E94FF806189
:10296000B8CF90915C01892F8E7F90FF8160B1CFAD
:1029700085E397C381608093A80161E086950E94FA
:102980000D1212CE4FE452E169E572E10E94A606F3
:102990000BCE49E552E16FE472E1F8CF4EE750E12A
:1029A00064E770E1F3CF4AE550E167E670E1EECF0E
:1029B00040E450E16DE470E1E9CF4DE450E160E4C2
:1029C00070E1E4CF4AE950E168E870E1DFCF61E00F
:1029D00081E0D5CF65E082E00E946412E5CD68E039
:1029E00086E0FACF64E18FE0F7CF67E185E1F4CFCD
:1029F00062E289E1F1CF61E083E2C1CF0E944E1132
:102A0000EFEBF7E229E0E150F0402040E1F700C0B1
:102A100000000E942C0D80915D0182FB882780F9C7
:102A200091E089270E94400DF70182810081118188
:102A3000882309F445C0C8010E948609D82E682F52
:102A4000C8010E94FA09B8018D2D0E94AD070E94AD
:102A5000C8078C01882EF701D280B580B2943FE080
:102A6000B322809147018770C1F0AD2CDD20B1F019
:102A7000812F807F803421F080E2800F883068F0E1
:102A800080915D0182FF09C082E00E947F0A8091EF
:102A900047018770AA24A3948111A12C912E9294AE
:102AA0002FE09222FBE0F91508F476C0E92DF0E062
:102AB000E652FF4D0C94FE1F81E0B4CF80E0B2CF10
:102AC000C8010E94C709D82EBECF212F2F70C22E59
:102AD000107F19F0C29490EFC922DD20B9F0CC200C
:102AE00069F080E2800F883010F0811009C0809179
:102AF0004901C82AC09249010E945209802F4AC048
:102B000080914801C82AC0924801F6CF802F0E94C8
:102B1000C30ACC2009F440C0005E083010F08110D8
:102B200004C08C2D0E944B0906C0C09480914801BE
:102B3000C822C09248010E9452092EC0312F3F7016
:102B4000C32E107F103219F0C29480EFC822882063
:102B500089F081E0881609F477C0DD2009F481C08E
:102B6000BB2009F477C0F701858180FFC7CF8F7044
:102B7000858370C020915D0122FD43C0DD20D9F125
:102B8000CC2039F080914901C82AC09249010E94A5
:102B9000520980E00E94F80AE92DE850FF0B3497B3
:102BA00010F40E940E06AA20A9F08091470180FD32
:102BB00011C0F70112828595859585950E949B0A23
:102BC000C7010E947412809147018595859585956E
:102BD0000E946D0A85E0F701DE01119601900D92C9
:102BE0008A95E1F709811A81C8010E94C709B801D5
:102BF0000E94AD078BCC80E00E94C30ACC2061F21A
:102C000090CFDD20A1F090914A018C2D892BB1103D
:102C100003C00E94B90AC0CFE1E0BE12FACF22FF82
:102C2000BBCF891709F4B8CF80934A01B5CFB11053
:102C300006C00E9445098C2D0E94B20AADCFF1E07A
:102C4000BF1609F4A9CFF5CFDD2031F025E02B1513
:102C500008F4A2CF8C2DDDCF34E03B1508F49CCFD7
:102C6000EACFBB2041F3F9E38F122AC12FEF3DEEEB
:102C700082E0215030408040E1F700C0000020C1D8
:102C8000812F86958695837061F0813009F084CF1D
:102C9000C8019370D11002C090E080E00E94E2056C
:102CA0007BCFC8019370D11002C090E080E00E94F9
:102CB000F80572CF812F837009F03FC0D1106CCF1F
:102CC000402F429546954770440F440F802F8F70D8
:102CD00090E0042E02C0880F991F0A94E2F730E0BA
:102CE00020E004FF09C02FE030E002C0220F331FB4
:102CF0004A95E2F720953095169516951370123087
:102D000099F078F440914B0150914C01113039F019
:102D1000822B932B842395230E94AB0A3DCF842BD7
:102D2000952B822B932BF8CF822B932B20914B0149
:102D300030914C0182279327EFCF8695DD2011F04B
:102D4000812F8170882309F427CF402F4295469523
:102D50004770440F440F802F8F7090E0042E02C004
:102D6000880F991F0A94E2F730E020E004FF09C0C1
:102D70002FE030E002C0220F331F4A95E2F7209582
:102D80003095169516951370123099F078F440919D
:102D90005A0150915B01113039F0822B932B84231F
:102DA00095230E945D0AF8CE842B952B822B932BC2
:102DB000F8CF822B932B20915A0130915B0182270F
:102DC0009327EFCF1F70DD2029F0812F0E949B0AEF
:102DD000802F1FCF802F0E94B20A812F0E946D0A80
:102DE000DBCE802F92EF891699F1981570F0E0EF05
:102DF0008E16D1F0F1EF8F1691F0DD2009F45BC053
:102E0000B1107CCE812F8F7127C023EF821639F14C
:102E100034EF8312F2CF80915D0182FD2EC0812FAD
:102E20008F71DD20D9F218C0DD2069F084E08B15A8
:102E300008F4B2CE1F7181E090E002C0880F991FA4
:102E40001A95E2F7B8CF95E09B1508F4A5CEF2CF1E
:102E5000812F8F71D110C2CF0E949B0A9DCE90E02E
:102E600080E0DD2009F49DCF1F7181E090E002C079
:102E7000880F991F1A95E2F794CFDD2089F01F7112
:102E8000812F0E949B0A80915D0182FF07C0E8E0CC
:102E90001E9FC0011124836080934701812FDCCFE6
:102EA00081E00E947F0AF1E0FB1508F075CE82E018
:102EB0000E947F0A71CEBB2039F0893309F4D6CE47
:102EC000802F0E94C30A68CE812F8F7187CF85E043
:102ED000DE01119601900D928A95E1F7F7012281AA
:102EE00089819A81211116CB0E94C709182F1ACB0C
:102EF0000B352DE5120709F4DFCD68F401158CE5DB
:102F0000180709F47BCD0F3D1C4509F08DCD0E94BB
:102F1000BC100E945A110D35EDE51E0709F47BCD5A
:102F200008F4CCCD083A1D45A1F37ECD809149012E
:102F300082720D3C3CE5130709F444CD08F063C0F0
:102F4000073CECE51E0709F429CDC8F5043C2CE547
:102F5000120709F417CD20F5033C8CE5180709F09A
:102F600063CD8091A80180FF05CD8E7F8093A8015D
:102F70006091A8017091A9018091AA019091AB0183
:102F80000E94B40F10927F013FEB84ED91E031502D
:102F900080409040E1F700C000000E947E0D04CB0D
:102FA000053C9CE5190709F4F4CC44E750E16EE7D1
:102FB00070E1063CECE51E0709F4E8CC35CD0A3C8F
:102FC000FCE51F0709F4F4CC78F4083C3CE5130752
:102FD00009F4E9CC47E650E16AE570E1093C9CE57B
:102FE000190709F4D3CC20CD0B3CECE51E0709F4FE
:102FF000E4CC48E850E16AE970E10C3CFCE51F07CD
:1030000009F4C4CC11CD023D2CE5120709F4EACC39
:10301000A0F40F3C8CE5180709F4DCCC08F4D7CCFD
:10302000003DECE51E0709F4DACC6EE089E0013DD5
:10303000FCE51F0709F4D0CCF7CC053D2CE51207C1
:1030400009F4D6CC68F4033D8CE5180709F4CDCC1F
:1030500061E088E1043D9CE5190709F490CCE4CCDB
:10306000063DECE51E0709F4C6CC0E35FDE51F074D
:1030700009F49ACAD9CC063FFCE51F0709F462CBD4
:1030800008F45CCB073F3CE5130709F485C0063123
:10309000FCE51F0709F04ACF8091EE00811168CC52
:1030A00089E2E8EEF0E02EEE30E09191891303C062
:1030B000DF0111971C922E173F07B9F768CB043F29
:1030C0008CE5180709F436CB08F05AC0093DECE549
:1030D0001E0709F42BCB0A3DFCE51F0709F436CB8C
:1030E000083D2CE5120709F447CA10925602043035
:1030F000FDE51F0708F02DCB0B3F2CE5120730F440
:10310000C80182509C45449708F02DCB0E94700D59
:1031100090935D0180935C0101319CE5190709F4EE
:10312000FDCB08F079CB0930FCE51F0709F4E0CBB3
:1031300008F044CB05303CE5130709F4D1CB08F087
:1031400029CB03309CE5190709F4C0CB08F0C4CBA8
:1031500080915C0181600230FCE51F0709F4B9CB66
:1031600060915C0110915D0184E090E00E944D202F
:10317000612F82E290E00E944D200E944E1114CAFD
:10318000063F3CE5130709F4DDCA08F4D7CA073F38
:103190009CE5190709F0A9CF27E245EE66EEEFC9D5
:1031A0001F93CF93DF9380911401807F09F049C072
:1031B00080911101882309F444C080914601D09187
:1031C000150160910F0170911001A0911201B09151
:1031D0001301C62FC72316E0D81799F190E0109776
:1031E00011F0CF3F19F401968770F6CF189F900128
:1031F000199F300D1124F901EA5EFE4F41814713FA
:10320000F2CF40814613EFCF42814111ECCF438191
:1032100054814A1B5B0B483C510528F780911401EF
:103220008F70806180931401F901E55EFE4F80810B
:103230008F70806180838FE091E00E9474120E9401
:103240007C09DF91CF911F910895A1E1B0E0EBE2FD
:10325000F9E10C949D1F8C0185E0F801DE011D96BB
:1032600001900D928A95E1F7F801E2808FE0A82E97
:1032700081E0B82E60911201709113016115710502
:1032800009F426C190910F0140911001892F8423E8
:103290008F3F09F41DC120813181C380D480F0901B
:1032A0001101F601E61BF70BFF2009F4DCC0809149
:1032B0001401582F507FE83CF10508F09FC05111D0
:1032C0006BC0FE2C431314C0921312C0E11010C047
:1032D0008F70806180931401C5010E9474128091E7
:1032E0001401F80185838F2D6196EAE00C94B91FD3
:1032F000C114D10429F0822F83238F3F09F003C129
:1033000080E0F82FF170DF2E80FF3CC080914601F5
:103310004091150156E0841315C02D873E878D8599
:103320009E850E94BA09292F22952F702230F0F035
:10333000243018F59F70F1F0F8019581907FD1F459
:10334000D12C1EC090E0589FF001599FF00D112420
:10335000EA5EFE4F6181361306C06081261303C00A
:103360006281E6120FC001968770D5CF9F7011F071
:10337000882331F3805E883018F3C8010E947412EC
:10338000FD2CB1CFEE2009F4AECF80911401816005
:1033900080931401F12CA7CF431306C0921304C0ED
:1033A000F801EE2009F479C0C8010E94300A882390
:1033B00009F1EE20F9F080911401803270F0209133
:1033C0000F013091100138872F831986DB86CA865A
:1033D0008C87CE0107960E94741286E0F801AFE058
:1033E000B1E001900D928A95E1F70E94D018FF2478
:1033F000F39479CFC8010E947412F9CF51110AC019
:103400008FE091E00E94741286E0F50111928A9596
:10341000E9F7C0CF43130FC092130DC0E1100BC0EA
:10342000F8018583C8010E94741286E0F5011192AB
:103430008A95E9F758CFC8010E94300A8823D1F253
:10344000EE20C1F280911401803238F220910F01F8
:10345000309110013A8329831B82DD82CC828E83D6
:10346000CE010196B8CFE83CF105F8F6FE2CEE202F
:1034700009F243131FC092131DC08091140180FDF7
:1034800010C0982F907F69F0F8018583903F31F04C
:10349000982F907F905F8F70892B8583C8010E9441
:1034A000741286E0F801AFE0B1E001900D928A95C8
:1034B000E1F719CFC8010E94300A81118ECF8091A7
:1034C0001401816080931401C8010E9474120BCF13
:1034D000EE2009F48FCFC8010E94300AF82E88230D
:1034E00009F488CF86E0F801AFE0B1E001900D92D9
:1034F0008A95E1F780910F01909110010E94BA091D
:103500000E94D018F0CE81E08E25FBCEA7E1B0E07E
:10351000ECE8FAE10C94A41F4B8B5C8B6D8B7E8BDB
:103520008F8B6111109248011A8A198A85E0FE0179
:103530007396DE011D9601900D928A95E1F786E063
:10354000FE013D96DE01179601900D928A95E1F7F6
:10355000CE0107960E942519811112C086E0FE0156
:103560003796DE01119601900D928A95E1F78A85D2
:103570009B85892B29F088859F8189238F3F81F541
:1035800016E08091460190911501891317C0679646
:10359000E3E00C94C01F96E0929FD001939FB00D82
:1035A0001124AA5EBE4FFE01319601900D929A95AC
:1035B000E1F7809315010E947C09E2CF819FC00151
:1035C00011248A5E9E4F0E942519882301F3809161
:1035D000460190E001968770992780934601D1CFEC
:1035E0002091150130E0C90101968770992740911B
:1035F00046014817190679F60E944E1110921501DE
:103600001092460186E0EFE0F1E0DF011D928A951D
:10361000E9F7B6CFAAE0B0E0E0E1FBE10C949B1F34
:103620008E010F5F1F4F8AE0F80111928A95E9F72A
:103630009EEAE92E90E0F92E6801AA24A394B12C09
:10364000F70181917F018F3F09F446C0F894E82F7C
:10365000E295EF70F0E021A98F70A50102C0440F40
:10366000551F8A95E2F7CA01922F982B91AB92A928
:103670008095892382AB789400C0E3EBF0E021E0F1
:1036800030E0912C812C41914F3F09F481C0A42F4F
:10369000A295AF70B0E0D0968C9190E04F7002C0D0
:1036A000959587954A95E2F780FD72C0C901882AF1
:1036B000992A220F331F50E0EF3BF50721F7F7015E
:1036C000319780818F3F11F00E94530788E78A95D8
:1036D000F1F7F60191828082F2E0CF0ED11C43EB2C
:1036E000E41640E0F40609F0ABCF4AE050E0B80140
:1036F00080E591E00E942C20FF24F394009709F4C8
:10370000F12C892B09F447C08AE0F801A0E5B1E06B
:1037100001900D928A95E1F781E080934F010E941C
:10372000A11190934E0180934D0180914D01909194
:103730004E010E949211059790F180915001909155
:1037400051019093600180935F01809152019091AB
:103750005301909362018093610180915401909193
:10376000550190936401809363018091560190917B
:103770005701909366018093650180915801909163
:103780005901909368018093670110924F0107C01F
:1037900090E080E08CCF80914F018111C6CF8F2DBA
:1037A0002A96ECE00C94B71F1F920F920FB60F925F
:1037B00011242F933F934F935F936F937F938F9336
:1037C0009F93AF93BF93EF93FF9380917A008230E2
:1037D000A1F08F5F80937A00FF91EF91BF91AF913D
:1037E0009F918F917F916F915F914F913F912F9119
:1037F0000F900FBE0F901F90189581E080937A0074
:103800008091AF019091B001019660ED72E00E944D
:10381000811F9093B0018093AF0165E070E00E943A
:10382000811F67FD6FE78091AE01823031F4603413
:1038300041F489B78B7F89BF04C0813011F46F37A1
:10384000C1F3E62FF0E0E55DF94F2491A6B5B7B5D9
:1038500030E00E94C2202FEF30E040E050E00E94B4
:10386000A020C9016CE070E00E94811F8091AD0131
:10387000869586958695282F269FC001279F900DB7
:1038800011240E941B0699BD88BDA6CFCDB7DEB717
:103890002A970FB6F894DEBF0FBECDBF84B78068FD
:1038A00084BF84B7806884BF0E94A1119093770180
:1038B0008093760181E597E09093E5008093E400A2
:1038C00085B7886085BF8BB780688BBF8BE480939A
:1038D00063028093980280936F028AE5809362026C
:1038E0008093970280936E028B9A80E0815009F05A
:1038F00061C08B9878948BE083BF8BEB8CBF82E0A8
:1039000089BF0EEA10E0F80181918F018F3F11F01D
:103910000E945307F0E0033B1F07A9F703EB10E0F9
:10392000EFEBEE2EE0E0FE2ED8018D918D018F3F62
:1039300011F00E945307E016F106B1F78AE0EFE5B7
:10394000F1E0DF01282F1D922A95E9F7E0E5F1E08B
:10395000DF011D928A95E9F790E080E00E94472000
:10396000883E9E4F11F00E94BC1082E090E00E94C1
:103970003920809369010E94700D90935D018093BE
:103980005C010E940A1BEFE3F9E121E0E150F04005
:103990002040E1F700C000000E940A1B80915F01F7
:1039A00080FF10C06FEF7FEF90E080E00E946A2000
:1039B0000E942C0DA895A7EBBBE01197F1F700C072
:1039C000000094CF83E090E00E94392090E00E94B4
:1039D000AB0A8C9A949882E28FBD89E18EBD8FEFFD
:1039E0009FEF97BD86BD0E9424118091AD0181FF9C
:1039F00009C01092B0011092AF011092AE0189B7C8
:103A0000846089BF0E94241180915E01811136C0BB
:103A100090E080E00E944720883E9E4F21F00E9467
:103A2000BC100E94AC1088E090E00E94412060939E
:103A3000A8017093A9018093AA019093AB016E7FB6
:103A400071F40E94AC1088E090E00E9441206093E5
:103A5000A8017093A9018093AA019093AB010E94E1
:103A6000AC0610927F018091A80180FF04C060E045
:103A700086950E940D1281E080935E0180E690E0C1
:103A80009093B4018093B3018FEB94EDA1E081504A
:103A90009040A040E1F700C0000074E1E72E74E020
:103AA000F72E80917D0210917501882351F11092BB
:103AB0007D020E94A11190937701809376011123DA
:103AC00009F4C1C0109275010E944E110E94241188
:103AD0000E940E0680917501882309F4B4C080E02D
:103AE0000E9487060E940A1BEFE5F1E089E691E05B
:103AF00021913191232B09F08CC08E179F07C1F7BC
:103B0000D0CF1111ECCF80917601909177010E9476
:103B10009211069708F497C081E08093750180E0C8
:103B20000E948706DCCF2F5FCC0CDD1C2C3009F007
:103B3000B9C00F5F1F4F0530110509F0A4C08FEF0A
:103B40008E838F8318860E94A1118160782F9A87B7
:103B500089874E815F8168858A850E94861AC9C0DF
:103B6000863059F4F0E0E15EFB4FE4910E2F10E057
:103B700070E9C72E7FE0D72ED5C0893061F4E69575
:103B8000F0E0E45EFB4FE4910E2F10E064E0C62EFF
:103B90006FE0D62EC7C08F3061F4E695F0E0E75EA7
:103BA000FB4FE4910E2F10E05FE9C52E5EE0D52EAD
:103BB000B9C0853159F4F0E0EA5EFB4FE4910E2F75
:103BC00010E041E5C42E4EE0D42EACC008E210E077
:103BD00096EDC92E9DE0D92E883109F4A3C0833219
:103BE00041F4F701059114913FE3C32E3FE0D32E3A
:103BF00099C004EF11E02FE9C22E2DE0D22E8432BD
:103C000009F490C000ED17E083ECC82E85E0D82EB3
:103C100089C0F89421B3939A822F8C6081BB92B3B0
:103C20003CE0932792BBFFE54AEE80E0F150404034
:103C30008040E1F700C0000082B3832782BB21BB34
:103C4000939878942ECF0E944B0B80914C0288233E
:103C500009F494C08091620284FF90C00E940A1B04
:103C6000882359F08FB7F8944091B7015091B8016B
:103C70006091B9017091BA018FBFEFE5F1E0AAE65A
:103C8000B1E010E000E0302F819191914D915D9174
:103C90004817590709F44DCF20E0CC24C394D12C08
:103CA00048275927BA016C217D21672B09F43BCFA6
:103CB00029833A8396012823392391E0232B09F4A1
:103CC00090E09B830E94A1118160782F9D838C835B
:103CD00049815A816B818D810E94861A000F111FC4
:103CE000F801E659FE4F80819181C826D926D182FC
:103CF000C08280917F018823D1F180917E01E09183
:103D0000A801E695E81BE0937A01823009F028CFFC
:103D1000F0E0EE5DFB4FE4910E2F10E0E0EACE2ED6
:103D2000EFE0DE2E80917B01882361F010927B0111
:103D30000E94A111909379018093780110927D01E6
:103D400010927C010E94A111E0917801F09179011B
:103D50008E1B9F0B8F3F9F4750F4E00FF11FF09396
:103D60007901E093780188E791E0F60109950E94D6
:103D70000E06909174018913809374010E94D10CF6
:103D800090CE11B887E080B985B3836085BB86B7D4
:103D9000846086BF86B7816086BF86B7806486BF31
:103DA0000895B0E0A0E0E7EDFEE10C949C1FB82E72
:103DB000EB010E94A1116C01EE24E394F12CC431BB
:103DC000D10560F025E0E22EF12CCF3FDC0731F089
:103DD000CE0164E170E00E94811F7B0184EAA82E7D
:103DE00094E8992E16BEA6BE0E94A1118C0106B6BB
:103DF00007FE0BC081B1887F8830F9F081B1887FE0
:103E00008031D9F00FEF1FEF09C00E94A111801B74
:103E1000910B8E159F0558F30EEF1FEFCF3FDC0778
:103E200009F3C6010E9492118C179D07D8F2C801B0
:103E3000CDB7DEB7EBE00C94B81FB3B896BE0E94C6
:103E4000A1118C0106B607FE09C081B1887F8831B7
:103E500011F08034B9F610E000E0E9CF0E94A11122
:103E6000801B910B8E159F0568F3D6CF0F931F9380
:103E7000CF93DF93EB0183B984E886BF0E94A11141
:103E80008C0106B607FE10C021B1287F81E090E0CA
:103E9000283211F490E080E0919581959109DF91AD
:103EA000CF911F910F910895CF3FDC0751F30E94EE
:103EB000A111801B910B8C179D0718F38EEF9FEFBC
:103EC000EECFB0E0A0E0E7E6FFE10C949F1F6B01AE
:103ED0008A017901B9010E94D11EE6010C0D1D1D58
:103EE000C017D10711F097FF07C024E926BFCDB74F
:103EF000DEB7E8E00C94BB1FB70189910E94361F22
:103F0000EFCFAA1BBB1B51E107C0AA1FBB1FA617FF
:103F1000B70710F0A61BB70B881F991F5A95A9F772
:103F200080959095BC01CD0108952F923F924F92BC
:103F30005F926F927F928F929F92AF92BF92CF9239
:103F4000DF92EF92FF920F931F93CF93DF93CDB742
:103F5000DEB7CA1BDB0B0FB6F894DEBF0FBECDBFBA
:103F600009942A88398848885F846E847D848C848B
:103F70009B84AA84B984C884DF80EE80FD800C8194
:103F80001B81AA81B981CE0FD11D0FB6F894DEBF77
:103F90000FBECDBFED010895DB018F939F930E946B
:103FA0008D20BF91AF91A29F800D911DA39F900D79
:103FB000B29F900D1124089587FB082E062687FDD9
:103FC000819567FD61950E9413200EF4919507FC81
:103FD0008195089597FB072E16F4009407D077FD7E
:103FE00009D00E94811F07FC05D03EF49095819571
:103FF0009F4F0895709561957F4F0895EE0FFF1FB5
:104000000590F491E02D09940E94C220332312F40C
:104010008A1B9B0B0C940E200E94C220B7FF0895B0
:10402000821B930B0895991B79E004C0991F961782
:1040300008F0961B881F7A95C9F780950895FC01B2
:104040004150504030F001900616D1F73197CF0122
:104050000895882799270895FB01DC0104C08D91FC
:104060000190801921F441505040C8F7881B990BEA
:104070000895E199FECF9FBB8EBBE09A99278DB33F
:104080000895A6E1B0E044E050E00C947F20A8E160
:10409000B0E042E050E00C947F20262FE199FECF63
:1040A0009FBB8EBBE09A01970DB2021631F02DBB7B
:1040B0000FB6F894E29AE19A0FBE08950396272F5F
:1040C0000E944E200E944D20252F0E944E20242F1A
:1040D0000C944E200196272F0E944E200C944D20C8
:1040E000262FE199FECF9FBB8EBB2DBB0FB6F89458
:1040F000E29AE19A0FBE01960895DC01CB01FC0122
:10410000E199FECF06C0FFBBEEBBE09A31960DB23F
:104110000D9241505040B8F708950E94C220A59FCB
:10412000900DB49F900DA49F800D911D11240895B2
:10413000B7FF0C948D200E948D20821B930B089555
:10414000A1E21A2EAA1BBB1BFD010DC0AA1FBB1F9B
:10415000EE1FFF1FA217B307E407F50720F0A21B0D
:10416000B30BE40BF50B661F771F881F991F1A947A
:1041700069F760957095809590959B01AC01BD01A4
:10418000CF010895A29FB001B39FC001A39F700DFE
:10419000811D1124911DB29F700D811D1124911D4F
:1041A0000895F894FFCFF91211131913331347131D
:1041B00061137813651565159E159E154016CC156F
:0C41C000CC15CC155A16E216F116F116BB
:1041CC00C505000DC405CC0CC70CC20501191A1B82
:1041DC001C1D1E1F20212201020101FF5A81828316
:1041EC00E200E900EA00B500B600B700CD0083019B
:1041FC00CC008A019201940121022302240225029F
:10420C00260227022A02B300B4006F00700060611E
:10421C0062636490919293949596973736353400F7
:10422C0001020202020606060909090909090F0F13
:10423C000F0F0F0F15151518191919191919191917
:04424C0019192324F5
:00000001FF
